{
  "address": "0xB7f8BC63BbcaD18155201308C8f3540b07f84F5e",
  "abi": [
    {
      "anonymous": false,
      "inputs": [
        {
          "indexed": false,
          "internalType": "address",
          "name": "previousAdmin",
          "type": "address"
        },
        {
          "indexed": false,
          "internalType": "address",
          "name": "newAdmin",
          "type": "address"
        }
      ],
      "name": "AdminChanged",
      "type": "event"
    },
    {
      "anonymous": false,
      "inputs": [
        {
          "indexed": true,
          "internalType": "address",
          "name": "owner",
          "type": "address"
        },
        {
          "indexed": true,
          "internalType": "address",
          "name": "approved",
          "type": "address"
        },
        {
          "indexed": true,
          "internalType": "uint256",
          "name": "tokenId",
          "type": "uint256"
        }
      ],
      "name": "Approval",
      "type": "event"
    },
    {
      "anonymous": false,
      "inputs": [
        {
          "indexed": true,
          "internalType": "address",
          "name": "owner",
          "type": "address"
        },
        {
          "indexed": true,
          "internalType": "address",
          "name": "operator",
          "type": "address"
        },
        {
          "indexed": false,
          "internalType": "bool",
          "name": "approved",
          "type": "bool"
        }
      ],
      "name": "ApprovalForAll",
      "type": "event"
    },
    {
      "anonymous": false,
      "inputs": [
        {
          "indexed": true,
          "internalType": "address",
          "name": "beacon",
          "type": "address"
        }
      ],
      "name": "BeaconUpgraded",
      "type": "event"
    },
    {
      "anonymous": false,
      "inputs": [
        {
          "indexed": true,
          "internalType": "uint256",
          "name": "contractId",
          "type": "uint256"
        },
        {
          "indexed": true,
          "internalType": "bytes32",
          "name": "contractName",
          "type": "bytes32"
        },
        {
          "indexed": true,
          "internalType": "uint256",
          "name": "totalValueLocked",
          "type": "uint256"
        },
        {
          "indexed": false,
          "internalType": "bool",
          "name": "isFunded",
          "type": "bool"
        }
      ],
      "name": "ContractFunded",
      "type": "event"
    },
    {
      "anonymous": false,
      "inputs": [
        {
          "indexed": true,
          "internalType": "uint256",
          "name": "contractId",
          "type": "uint256"
        },
        {
          "indexed": true,
          "internalType": "bytes32",
          "name": "contractName",
          "type": "bytes32"
        },
        {
          "indexed": true,
          "internalType": "uint256",
          "name": "contractValue",
          "type": "uint256"
        },
        {
          "indexed": false,
          "internalType": "bool",
          "name": "available",
          "type": "bool"
        }
      ],
      "name": "OilContractAvail",
      "type": "event"
    },
    {
      "anonymous": false,
      "inputs": [
        {
          "indexed": true,
          "internalType": "uint256",
          "name": "contractId",
          "type": "uint256"
        },
        {
          "indexed": true,
          "internalType": "uint256",
          "name": "contractValue",
          "type": "uint256"
        }
      ],
      "name": "OilContractCreated",
      "type": "event"
    },
    {
      "anonymous": false,
      "inputs": [
        {
          "indexed": true,
          "internalType": "uint256",
          "name": "contractId",
          "type": "uint256"
        },
        {
          "indexed": true,
          "internalType": "uint256",
          "name": "nftId",
          "type": "uint256"
        },
        {
          "indexed": true,
          "internalType": "uint256",
          "name": "deedAmount",
          "type": "uint256"
        }
      ],
      "name": "OilContractDeedPurchased",
      "type": "event"
    },
    {
      "anonymous": false,
      "inputs": [
        {
          "indexed": true,
          "internalType": "uint256",
          "name": "contractId",
          "type": "uint256"
        },
        {
          "indexed": true,
          "internalType": "bytes32",
          "name": "contractName",
          "type": "bytes32"
        },
        {
          "indexed": true,
          "internalType": "uint256",
          "name": "contractValue",
          "type": "uint256"
        },
        {
          "indexed": false,
          "internalType": "bool",
          "name": "available",
          "type": "bool"
        }
      ],
      "name": "OilContractUnAvail",
      "type": "event"
    },
    {
      "anonymous": false,
      "inputs": [
        {
          "indexed": true,
          "internalType": "address",
          "name": "previousOwner",
          "type": "address"
        },
        {
          "indexed": true,
          "internalType": "address",
          "name": "newOwner",
          "type": "address"
        }
      ],
      "name": "OwnershipTransferred",
      "type": "event"
    },
    {
      "anonymous": false,
      "inputs": [
        {
          "indexed": true,
          "internalType": "uint256",
          "name": "nftId",
          "type": "uint256"
        },
        {
          "indexed": true,
          "internalType": "uint256",
          "name": "paymentId",
          "type": "uint256"
        },
        {
          "indexed": true,
          "internalType": "uint256",
          "name": "paymentAmount",
          "type": "uint256"
        },
        {
          "indexed": false,
          "internalType": "address",
          "name": "owner",
          "type": "address"
        }
      ],
      "name": "PaymentDispatched",
      "type": "event"
    },
    {
      "anonymous": false,
      "inputs": [
        {
          "indexed": true,
          "internalType": "address",
          "name": "from",
          "type": "address"
        },
        {
          "indexed": true,
          "internalType": "address",
          "name": "to",
          "type": "address"
        },
        {
          "indexed": true,
          "internalType": "uint256",
          "name": "tokenId",
          "type": "uint256"
        }
      ],
      "name": "Transfer",
      "type": "event"
    },
    {
      "anonymous": false,
      "inputs": [
        {
          "indexed": true,
          "internalType": "address",
          "name": "implementation",
          "type": "address"
        }
      ],
      "name": "Upgraded",
      "type": "event"
    },
    {
      "inputs": [],
      "name": "USDC",
      "outputs": [
        {
          "internalType": "address",
          "name": "",
          "type": "address"
        }
      ],
      "stateMutability": "view",
      "type": "function"
    },
    {
      "inputs": [],
      "name": "WETH",
      "outputs": [
        {
          "internalType": "address",
          "name": "",
          "type": "address"
        }
      ],
      "stateMutability": "view",
      "type": "function"
    },
    {
      "inputs": [
        {
          "internalType": "address",
          "name": "to",
          "type": "address"
        },
        {
          "internalType": "uint256",
          "name": "tokenId",
          "type": "uint256"
        }
      ],
      "name": "approve",
      "outputs": [],
      "stateMutability": "nonpayable",
      "type": "function"
    },
    {
      "inputs": [
        {
          "internalType": "address",
          "name": "owner",
          "type": "address"
        }
      ],
      "name": "balanceOf",
      "outputs": [
        {
          "internalType": "uint256",
          "name": "",
          "type": "uint256"
        }
      ],
      "stateMutability": "view",
      "type": "function"
    },
    {
      "inputs": [
        {
          "internalType": "bytes32",
          "name": "",
          "type": "bytes32"
        },
        {
          "internalType": "uint256",
          "name": "",
          "type": "uint256"
        }
      ],
      "name": "contractIdToNftAmount",
      "outputs": [
        {
          "internalType": "uint256",
          "name": "",
          "type": "uint256"
        }
      ],
      "stateMutability": "view",
      "type": "function"
    },
    {
      "inputs": [],
      "name": "contractIds",
      "outputs": [
        {
          "internalType": "uint256",
          "name": "",
          "type": "uint256"
        }
      ],
      "stateMutability": "view",
      "type": "function"
    },
    {
      "inputs": [
        {
          "internalType": "string",
          "name": "contractName",
          "type": "string"
        },
        {
          "internalType": "uint256",
          "name": "contractValue",
          "type": "uint256"
        }
      ],
      "name": "createOilContract",
      "outputs": [],
      "stateMutability": "nonpayable",
      "type": "function"
    },
    {
      "inputs": [
        {
          "internalType": "uint256",
          "name": "contractId",
          "type": "uint256"
        }
      ],
      "name": "dispatchPayments",
      "outputs": [],
      "stateMutability": "payable",
      "type": "function"
    },
    {
      "inputs": [
        {
          "internalType": "uint256",
          "name": "tokenId",
          "type": "uint256"
        }
      ],
      "name": "getApproved",
      "outputs": [
        {
          "internalType": "address",
          "name": "",
          "type": "address"
        }
      ],
      "stateMutability": "view",
      "type": "function"
    },
    {
      "inputs": [],
      "name": "getContractIds",
      "outputs": [
        {
          "internalType": "uint256",
          "name": "",
          "type": "uint256"
        }
      ],
      "stateMutability": "view",
      "type": "function"
    },
    {
      "inputs": [
        {
          "internalType": "uint256",
          "name": "_contractId",
          "type": "uint256"
        }
      ],
      "name": "getOilContract",
      "outputs": [
        {
          "components": [
            {
              "internalType": "uint256",
              "name": "id",
              "type": "uint256"
            },
            {
              "internalType": "uint256",
              "name": "totalValue",
              "type": "uint256"
            },
            {
              "internalType": "bytes32",
              "name": "name",
              "type": "bytes32"
            },
            {
              "internalType": "bool",
              "name": "available",
              "type": "bool"
            },
            {
              "internalType": "uint256",
              "name": "totalValueLocked",
              "type": "uint256"
            },
            {
              "internalType": "bool",
              "name": "funded",
              "type": "bool"
            },
            {
              "internalType": "uint256",
              "name": "nftIds",
              "type": "uint256"
            },
            {
              "internalType": "uint256",
              "name": "paymentId",
              "type": "uint256"
            }
          ],
          "internalType": "struct PetroStake.OilContract",
          "name": "_oilContract",
          "type": "tuple"
        }
      ],
      "stateMutability": "view",
      "type": "function"
    },
    {
      "inputs": [
        {
          "internalType": "address",
          "name": "newOwner",
          "type": "address"
        },
        {
          "internalType": "address",
          "name": "_stableCoin",
          "type": "address"
        },
        {
          "internalType": "address",
          "name": "_WETH",
          "type": "address"
        },
        {
          "internalType": "contract ISwapRouter",
          "name": "_swapRouter",
          "type": "address"
        }
      ],
      "name": "initialize",
      "outputs": [],
      "stateMutability": "nonpayable",
      "type": "function"
    },
    {
      "inputs": [
        {
          "internalType": "address",
          "name": "owner",
          "type": "address"
        },
        {
          "internalType": "address",
          "name": "operator",
          "type": "address"
        }
      ],
      "name": "isApprovedForAll",
      "outputs": [
        {
          "internalType": "bool",
          "name": "",
          "type": "bool"
        }
      ],
      "stateMutability": "view",
      "type": "function"
    },
    {
      "inputs": [
        {
          "internalType": "uint256",
          "name": "contractId",
          "type": "uint256"
        }
      ],
      "name": "makeContractAvail",
      "outputs": [],
      "stateMutability": "nonpayable",
      "type": "function"
    },
    {
      "inputs": [
        {
          "internalType": "uint256",
          "name": "contractId",
          "type": "uint256"
        }
      ],
      "name": "makeContractUnAvail",
      "outputs": [],
      "stateMutability": "nonpayable",
      "type": "function"
    },
    {
      "inputs": [],
      "name": "name",
      "outputs": [
        {
          "internalType": "string",
          "name": "",
          "type": "string"
        }
      ],
      "stateMutability": "view",
      "type": "function"
    },
    {
      "inputs": [
        {
          "internalType": "uint256",
          "name": "",
          "type": "uint256"
        }
      ],
      "name": "oilContracts",
      "outputs": [
        {
          "internalType": "uint256",
          "name": "id",
          "type": "uint256"
        },
        {
          "internalType": "uint256",
          "name": "totalValue",
          "type": "uint256"
        },
        {
          "internalType": "bytes32",
          "name": "name",
          "type": "bytes32"
        },
        {
          "internalType": "bool",
          "name": "available",
          "type": "bool"
        },
        {
          "internalType": "uint256",
          "name": "totalValueLocked",
          "type": "uint256"
        },
        {
          "internalType": "bool",
          "name": "funded",
          "type": "bool"
        },
        {
          "internalType": "uint256",
          "name": "nftIds",
          "type": "uint256"
        },
        {
          "internalType": "uint256",
          "name": "paymentId",
          "type": "uint256"
        }
      ],
      "stateMutability": "view",
      "type": "function"
    },
    {
      "inputs": [],
      "name": "owner",
      "outputs": [
        {
          "internalType": "address",
          "name": "",
          "type": "address"
        }
      ],
      "stateMutability": "view",
      "type": "function"
    },
    {
      "inputs": [
        {
          "internalType": "uint256",
          "name": "tokenId",
          "type": "uint256"
        }
      ],
      "name": "ownerOf",
      "outputs": [
        {
          "internalType": "address",
          "name": "",
          "type": "address"
        }
      ],
      "stateMutability": "view",
      "type": "function"
    },
    {
      "inputs": [],
      "name": "poolFee",
      "outputs": [
        {
          "internalType": "uint24",
          "name": "",
          "type": "uint24"
        }
      ],
      "stateMutability": "view",
      "type": "function"
    },
    {
      "inputs": [],
      "name": "proxiableUUID",
      "outputs": [
        {
          "internalType": "bytes32",
          "name": "",
          "type": "bytes32"
        }
      ],
      "stateMutability": "view",
      "type": "function"
    },
    {
      "inputs": [
        {
          "internalType": "uint256",
          "name": "contractId",
          "type": "uint256"
        }
      ],
      "name": "purchaseContractStake",
      "outputs": [],
      "stateMutability": "payable",
      "type": "function"
    },
    {
      "inputs": [],
      "name": "renounceOwnership",
      "outputs": [],
      "stateMutability": "nonpayable",
      "type": "function"
    },
    {
      "inputs": [
        {
          "internalType": "address",
          "name": "from",
          "type": "address"
        },
        {
          "internalType": "address",
          "name": "to",
          "type": "address"
        },
        {
          "internalType": "uint256",
          "name": "tokenId",
          "type": "uint256"
        }
      ],
      "name": "safeTransferFrom",
      "outputs": [],
      "stateMutability": "nonpayable",
      "type": "function"
    },
    {
      "inputs": [
        {
          "internalType": "address",
          "name": "from",
          "type": "address"
        },
        {
          "internalType": "address",
          "name": "to",
          "type": "address"
        },
        {
          "internalType": "uint256",
          "name": "tokenId",
          "type": "uint256"
        },
        {
          "internalType": "bytes",
          "name": "_data",
          "type": "bytes"
        }
      ],
      "name": "safeTransferFrom",
      "outputs": [],
      "stateMutability": "nonpayable",
      "type": "function"
    },
    {
      "inputs": [
        {
          "internalType": "address",
          "name": "operator",
          "type": "address"
        },
        {
          "internalType": "bool",
          "name": "approved",
          "type": "bool"
        }
      ],
      "name": "setApprovalForAll",
      "outputs": [],
      "stateMutability": "nonpayable",
      "type": "function"
    },
    {
      "inputs": [
        {
          "internalType": "bytes4",
          "name": "interfaceId",
          "type": "bytes4"
        }
      ],
      "name": "supportsInterface",
      "outputs": [
        {
          "internalType": "bool",
          "name": "",
          "type": "bool"
        }
      ],
      "stateMutability": "view",
      "type": "function"
    },
    {
      "inputs": [],
      "name": "swapRouter",
      "outputs": [
        {
          "internalType": "contract ISwapRouter",
          "name": "",
          "type": "address"
        }
      ],
      "stateMutability": "view",
      "type": "function"
    },
    {
      "inputs": [],
      "name": "symbol",
      "outputs": [
        {
          "internalType": "string",
          "name": "",
          "type": "string"
        }
      ],
      "stateMutability": "view",
      "type": "function"
    },
    {
      "inputs": [
        {
          "internalType": "uint256",
          "name": "tokenId",
          "type": "uint256"
        }
      ],
      "name": "tokenURI",
      "outputs": [
        {
          "internalType": "string",
          "name": "",
          "type": "string"
        }
      ],
      "stateMutability": "view",
      "type": "function"
    },
    {
      "inputs": [
        {
          "internalType": "address",
          "name": "from",
          "type": "address"
        },
        {
          "internalType": "address",
          "name": "to",
          "type": "address"
        },
        {
          "internalType": "uint256",
          "name": "tokenId",
          "type": "uint256"
        }
      ],
      "name": "transferFrom",
      "outputs": [],
      "stateMutability": "nonpayable",
      "type": "function"
    },
    {
      "inputs": [
        {
          "internalType": "address",
          "name": "newOwner",
          "type": "address"
        }
      ],
      "name": "transferOwnership",
      "outputs": [],
      "stateMutability": "nonpayable",
      "type": "function"
    },
    {
      "inputs": [
        {
          "internalType": "address",
          "name": "newImplementation",
          "type": "address"
        }
      ],
      "name": "upgradeTo",
      "outputs": [],
      "stateMutability": "nonpayable",
      "type": "function"
    },
    {
      "inputs": [
        {
          "internalType": "address",
          "name": "newImplementation",
          "type": "address"
        },
        {
          "internalType": "bytes",
          "name": "data",
          "type": "bytes"
        }
      ],
      "name": "upgradeToAndCall",
      "outputs": [],
      "stateMutability": "payable",
      "type": "function"
    }
  ],
  "numDeployments": 1,
  "solcInputHash": "5868fce29c5a578eca3662fe867a7004",
  "bytecode": "0x60a06040523060805234801561001457600080fd5b50608051612f8261004c60003960008181610aa201528181610ae201528181610dd301528181610e130152610ea60152612f826000f3fe6080604052600436106101f95760003560e01c806370a082311161010d5780639ab085eb116100a0578063c31c9c071161006f578063c31c9c0714610688578063c87b56dd146106a9578063e985e9c5146106c9578063f2fde38b14610713578063f8c8765e1461073357600080fd5b80639ab085eb14610607578063a22cb46514610627578063ad5c464814610647578063b88d4fde1461066857600080fd5b8063832e19fc116100dc578063832e19fc1461059357806389a30271146105b35780638da5cb5b146105d457806395d89b41146105f257600080fd5b806370a082311461050e578063715018a61461052e57806374171596146105435780637f673bcd1461055a57600080fd5b806338393927116101905780634f1ef2861161015f5780634f1ef2861461040457806352d1902d146104175780636352211e1461042c5780636511db9a1461044c57806366d6502f1461046c57600080fd5b8063383939271461039e5780633dbf90d8146103be57806342842e0e146103d157806347327a04146103f157600080fd5b8063089fe6aa116101cc578063089fe6aa14610312578063095ea7b31461033c57806323b872dd1461035e5780633659cfe61461037e57600080fd5b806301ffc9a7146101fe57806302c2ccfe1461023357806306fdde03146102b8578063081812fc146102da575b600080fd5b34801561020a57600080fd5b5061021e610219366004612741565b610753565b60405190151581526020015b60405180910390f35b34801561023f57600080fd5b5061025361024e36600461275e565b6107a5565b60405161022a91906000610100820190508251825260208301516020830152604083015160408301526060830151151560608301526080830151608083015260a0830151151560a083015260c083015160c083015260e083015160e083015292915050565b3480156102c457600080fd5b506102cd610824565b60405161022a91906127cf565b3480156102e657600080fd5b506102fa6102f536600461275e565b6108b6565b6040516001600160a01b03909116815260200161022a565b34801561031e57600080fd5b50610328610bb881565b60405162ffffff909116815260200161022a565b34801561034857600080fd5b5061035c6103573660046127f7565b610950565b005b34801561036a57600080fd5b5061035c610379366004612823565b610a66565b34801561038a57600080fd5b5061035c610399366004612864565b610a97565b3480156103aa57600080fd5b5061012d545b60405190815260200161022a565b61035c6103cc36600461275e565b610b77565b3480156103dd57600080fd5b5061035c6103ec366004612823565b610c3d565b61035c6103ff36600461275e565b610c58565b61035c610412366004612924565b610dc8565b34801561042357600080fd5b506103b0610e99565b34801561043857600080fd5b506102fa61044736600461275e565b610f4c565b34801561045857600080fd5b5061035c61046736600461275e565b610fc3565b34801561047857600080fd5b506104d161048736600461275e565b61012e602052600090815260409020805460018201546002830154600384015460048501546005860154600687015460079097015495969495939460ff9384169492939091169188565b6040805198895260208901979097529587019490945291151560608601526080850152151560a084015260c083015260e08201526101000161022a565b34801561051a57600080fd5b506103b0610529366004612864565b6111cc565b34801561053a57600080fd5b5061035c611253565b34801561054f57600080fd5b506103b061012d5481565b34801561056657600080fd5b506103b0610575366004612974565b61012f60209081526000928352604080842090915290825290205481565b34801561059f57600080fd5b5061035c6105ae36600461275e565b611289565b3480156105bf57600080fd5b50610131546102fa906001600160a01b031681565b3480156105e057600080fd5b506097546001600160a01b03166102fa565b3480156105fe57600080fd5b506102cd611417565b34801561061357600080fd5b5061035c610622366004612996565b611426565b34801561063357600080fd5b5061035c610642366004612a0e565b6115f8565b34801561065357600080fd5b50610132546102fa906001600160a01b031681565b34801561067457600080fd5b5061035c610683366004612a4c565b611603565b34801561069457600080fd5b50610130546102fa906001600160a01b031681565b3480156106b557600080fd5b506102cd6106c436600461275e565b61163b565b3480156106d557600080fd5b5061021e6106e4366004612ab8565b6001600160a01b0391821660009081526101006020908152604080832093909416825291909152205460ff1690565b34801561071f57600080fd5b5061035c61072e366004612864565b611723565b34801561073f57600080fd5b5061035c61074e366004612ae6565b6117bb565b60006001600160e01b031982166380ac58cd60e01b148061078457506001600160e01b03198216635b5e139f60e01b145b8061079f57506301ffc9a760e01b6001600160e01b03198316145b92915050565b6107ad612646565b600082815261012e6020526040902060408051610100810182528254815260018301546020820152600283015491810191909152600382015460ff9081161515606083015260048301546080830152600583015416151560a0820152600682015460c082015260079091015460e082015292915050565b606060fb805461083390612b42565b80601f016020809104026020016040519081016040528092919081815260200182805461085f90612b42565b80156108ac5780601f10610881576101008083540402835291602001916108ac565b820191906000526020600020905b81548152906001019060200180831161088f57829003601f168201915b5050505050905090565b600081815260fd60205260408120546001600160a01b03166109345760405162461bcd60e51b815260206004820152602c60248201527f4552433732313a20617070726f76656420717565727920666f72206e6f6e657860448201526b34b9ba32b73a103a37b5b2b760a11b60648201526084015b60405180910390fd5b50600090815260ff60205260409020546001600160a01b031690565b600061095b82610f4c565b9050806001600160a01b0316836001600160a01b031614156109c95760405162461bcd60e51b815260206004820152602160248201527f4552433732313a20617070726f76616c20746f2063757272656e74206f776e656044820152603960f91b606482015260840161092b565b336001600160a01b03821614806109e557506109e581336106e4565b610a575760405162461bcd60e51b815260206004820152603860248201527f4552433732313a20617070726f76652063616c6c6572206973206e6f74206f7760448201527f6e6572206e6f7220617070726f76656420666f7220616c6c0000000000000000606482015260840161092b565b610a61838361192d565b505050565b610a70338261199b565b610a8c5760405162461bcd60e51b815260040161092b90612b7d565b610a61838383611a93565b306001600160a01b037f0000000000000000000000000000000000000000000000000000000000000000161415610ae05760405162461bcd60e51b815260040161092b90612bce565b7f00000000000000000000000000000000000000000000000000000000000000006001600160a01b0316610b29600080516020612f06833981519152546001600160a01b031690565b6001600160a01b031614610b4f5760405162461bcd60e51b815260040161092b90612c1a565b610b5881611c2f565b60408051600080825260208201909252610b7491839190611c59565b50565b600081815261012e60209081526040808320815161010081018352815481526001820154938101849052600282015492810192909252600381015460ff908116151560608401526004820154608084018190526005830154909116151560a0840152600682015460c084015260079091015460e0830152909291610bfb9190612c7c565b9050600060405162461bcd60e51b8152602060048201526013602482015272151bdbc81b5d58da08195d1a195c881cd95b9d606a1b604482015260640161092b565b610a6183838360405180602001604052806000815250611603565b6097546001600160a01b03163314610c825760405162461bcd60e51b815260040161092b90612cc6565b600081815261012e602090815260409182902082516101008101845281548152600182015492810192909252600281015492820192909252600382015460ff9081161515606083015260048301546080830152600583015416151560a08201819052600683015460c083015260079092015460e082015290610d465760405162461bcd60e51b815260206004820152601760248201527f636f6e7472616374206d757374206d652066756e646564000000000000000000604482015260640161092b565b610d4f81611dd3565b600092835261012e602090815260409384902082518155908201516001820155928101516002840155606081015160038401805491151560ff199283161790556080820151600485015560a08201516005850180549115159190921617905560c0810151600684015560e0015160079092019190915550565b306001600160a01b037f0000000000000000000000000000000000000000000000000000000000000000161415610e115760405162461bcd60e51b815260040161092b90612bce565b7f00000000000000000000000000000000000000000000000000000000000000006001600160a01b0316610e5a600080516020612f06833981519152546001600160a01b031690565b6001600160a01b031614610e805760405162461bcd60e51b815260040161092b90612c1a565b610e8982611c2f565b610e9582826001611c59565b5050565b6000306001600160a01b037f00000000000000000000000000000000000000000000000000000000000000001614610f395760405162461bcd60e51b815260206004820152603860248201527f555550535570677261646561626c653a206d757374206e6f742062652063616c60448201527f6c6564207468726f7567682064656c656761746563616c6c0000000000000000606482015260840161092b565b50600080516020612f0683398151915290565b600081815260fd60205260408120546001600160a01b03168061079f5760405162461bcd60e51b815260206004820152602960248201527f4552433732313a206f776e657220717565727920666f72206e6f6e657869737460448201526832b73a103a37b5b2b760b91b606482015260840161092b565b6097546001600160a01b03163314610fed5760405162461bcd60e51b815260040161092b90612cc6565b600081815261012e602090815260409182902082516101008101845281548152600182015492810192909252600281015492820192909252600382015460ff9081161580156060840152600484015460808401526005840154909116151560a0830152600683015460c083015260079092015460e0820152906110b25760405162461bcd60e51b815260206004820152601a60248201527f4f696c20636f6e7472616374206e6f7420617661696c61626c65000000000000604482015260640161092b565b60608101805115908190526111095760405162461bcd60e51b815260206004820152601e60248201527f4f696c436f6e7472616374206e6f74206d61646520617661696c61626c650000604482015260640161092b565b8060200151816040015182600001517fcdf5315a6404ee58823ce72b01b68dfa189d5937e23cab1a9460ae5634ccbcf1846060015160405161114f911515815260200190565b60405180910390a4600091825261012e602090815260409283902082518155908201516001820155918101516002830155606081015160038301805491151560ff199283161790556080820151600484015560a08201516005840180549115159190921617905560c0810151600683015560e00151600790910155565b60006001600160a01b0382166112375760405162461bcd60e51b815260206004820152602a60248201527f4552433732313a2062616c616e636520717565727920666f7220746865207a65604482015269726f206164647265737360b01b606482015260840161092b565b506001600160a01b0316600090815260fe602052604090205490565b6097546001600160a01b0316331461127d5760405162461bcd60e51b815260040161092b90612cc6565b6112876000611f15565b565b6097546001600160a01b031633146112b35760405162461bcd60e51b815260040161092b90612cc6565b600081815261012e602090815260409182902082516101008101845281548152600182015492810192909252600281015492820192909252600382015460ff908116151560608301819052600484015460808401526005840154909116151560a0830152600683015460c083015260079092015460e0820152906113795760405162461bcd60e51b815260206004820152601c60248201527f436f6e747261637420616c726561647920756e617661696c61626c6500000000604482015260640161092b565b6060810180511590819052156113d15760405162461bcd60e51b815260206004820152601b60248201527f4f696c436f6e7472616374207374696c6c20617661696c61626c650000000000604482015260640161092b565b8060200151816040015182600001517f82989c3046930173307063a6708895208e2577b62c02baa1b241aa881700672e846060015160405161114f911515815260200190565b606060fc805461083390612b42565b6097546001600160a01b031633146114505760405162461bcd60e51b815260040161092b90612cc6565b620186a081116114a25760405162461bcd60e51b815260206004820152601b60248201527f436f6e74726163742056616c756520756e646572203130303030300000000000604482015260640161092b565b60408051600081526020810180835281519020916114c4918691869101612cfb565b6040516020818303038152906040528051906020012014156115195760405162461bcd60e51b815260206004820152600e60248201526d4e616d652072657175697265642160901b604482015260640161092b565b61012d80546000918261152b83612c93565b919050559050611539612646565b8181526020810183905261154e858584611f67565b6040808301918252600084815261012e60209081528282208551815590850151600182015592516002840155606084015160038401805491151560ff199283161790556080850151600485015560a08501516005850180549115159190921617905560c0840151600684015560e084015160079093019290925551849184917faa700fccc6e67c270f4396cdf84d6e72b175a957b12814191db44e67944ec2b49190a35050505050565b610e95338383611f9f565b61160d338361199b565b6116295760405162461bcd60e51b815260040161092b90612b7d565b6116358484848461206f565b50505050565b600081815260fd60205260409020546060906001600160a01b03166116ba5760405162461bcd60e51b815260206004820152602f60248201527f4552433732314d657461646174613a2055524920717565727920666f72206e6f60448201526e3732bc34b9ba32b73a103a37b5b2b760891b606482015260840161092b565b60006116d160408051602081019091526000815290565b905060008151116116f1576040518060200160405280600081525061171c565b806116fb846120a2565b60405160200161170c929190612d0b565b6040516020818303038152906040525b9392505050565b6097546001600160a01b0316331461174d5760405162461bcd60e51b815260040161092b90612cc6565b6001600160a01b0381166117b25760405162461bcd60e51b815260206004820152602660248201527f4f776e61626c653a206e6577206f776e657220697320746865207a65726f206160448201526564647265737360d01b606482015260840161092b565b610b7481611f15565b600054610100900460ff166117d65760005460ff16156117da565b303b155b61183d5760405162461bcd60e51b815260206004820152602e60248201527f496e697469616c697a61626c653a20636f6e747261637420697320616c72656160448201526d191e481a5b9a5d1a585b1a5e995960921b606482015260840161092b565b600054610100900460ff1615801561185f576000805461ffff19166101011790555b6118676121a0565b61186f6121c7565b6118cb6040518060400160405280601c81526020017f417274506172746974696f6e546f6c6572616e745374617465444f41000000008152506040518060400160405280600581526020016410541514d160da1b8152506121f6565b6118d485611723565b61013080546001600160a01b038085166001600160a01b03199283161790925561013180548784169083161790556101328054928616929091169190911790558015611926576000805461ff00191690555b5050505050565b600081815260ff6020526040902080546001600160a01b0319166001600160a01b038416908117909155819061196282610f4c565b6001600160a01b03167f8c5be1e5ebec7d5bd14f71427d1e84f3dd0314c0f7b2291e5b200ac8c7c3b92560405160405180910390a45050565b600081815260fd60205260408120546001600160a01b0316611a145760405162461bcd60e51b815260206004820152602c60248201527f4552433732313a206f70657261746f7220717565727920666f72206e6f6e657860448201526b34b9ba32b73a103a37b5b2b760a11b606482015260840161092b565b6000611a1f83610f4c565b9050806001600160a01b0316846001600160a01b03161480611a5a5750836001600160a01b0316611a4f846108b6565b6001600160a01b0316145b80611a8b57506001600160a01b038082166000908152610100602090815260408083209388168352929052205460ff165b949350505050565b826001600160a01b0316611aa682610f4c565b6001600160a01b031614611b0a5760405162461bcd60e51b815260206004820152602560248201527f4552433732313a207472616e736665722066726f6d20696e636f72726563742060448201526437bbb732b960d91b606482015260840161092b565b6001600160a01b038216611b6c5760405162461bcd60e51b8152602060048201526024808201527f4552433732313a207472616e7366657220746f20746865207a65726f206164646044820152637265737360e01b606482015260840161092b565b611b7760008261192d565b6001600160a01b038316600090815260fe60205260408120805460019290611ba0908490612c7c565b90915550506001600160a01b038216600090815260fe60205260408120805460019290611bce908490612cae565b9091555050600081815260fd602052604080822080546001600160a01b0319166001600160a01b0386811691821790925591518493918716917fddf252ad1be2c89b69c2b068fc378daa952ba7f163c4a11628f55a4df523b3ef91a4505050565b6097546001600160a01b03163314610b745760405162461bcd60e51b815260040161092b90612cc6565b7f4910fdfa16fed3260ed0e7147f7cc6da11a60208b5b9406d12a635614ffd91435460ff1615611c8c57610a6183612227565b826001600160a01b03166352d1902d6040518163ffffffff1660e01b815260040160206040518083038186803b158015611cc557600080fd5b505afa925050508015611cf5575060408051601f3d908101601f19168201909252611cf291810190612d3a565b60015b611d585760405162461bcd60e51b815260206004820152602e60248201527f45524331393637557067726164653a206e657720696d706c656d656e7461746960448201526d6f6e206973206e6f74205555505360901b606482015260840161092b565b600080516020612f068339815191528114611dc75760405162461bcd60e51b815260206004820152602960248201527f45524331393637557067726164653a20756e737570706f727465642070726f786044820152681a58589b195555525160ba1b606482015260840161092b565b50610a618383836122c3565b611ddb612646565b60015b8260c001518111611f0e5760e083018051600091611dfb82612c93565b905290506000611e0a83610f4c565b90506000611e2184876040015188602001516122e8565b90506000826001600160a01b03168260405160006040518083038185875af1925050503d8060008114611e70576040519150601f19603f3d011682016040523d82523d6000602084013e611e75565b606091505b5050905080611eb55760405162461bcd60e51b815260206004820152600c60248201526b2830bcb6b2b73a22b93937b960a11b604482015260640161092b565b6040516001600160a01b03841681528290859087907f3601f858173b244b5ae6f21312dfd38c469eee052de08684514c444f0c4996dc9060200160405180910390a4505050508080611f0690612c93565b915050611dde565b5090919050565b609780546001600160a01b038381166001600160a01b0319831681179093556040519116919082907f8be0079c531659141344cd1fd0a4f28419497f9722a3daafe3b4186f6b6457e090600090a35050565b600083838330604051602001611f809493929190612d53565b6040516020818303038152906040528051906020012090509392505050565b816001600160a01b0316836001600160a01b031614156120015760405162461bcd60e51b815260206004820152601960248201527f4552433732313a20617070726f766520746f2063616c6c657200000000000000604482015260640161092b565b6001600160a01b0383811660008181526101006020908152604080832094871680845294825291829020805460ff191686151590811790915591519182527f17307eab39ab6107e8899845ad3d59bd9653f200f220920489ca2b5937696c31910160405180910390a3505050565b61207a848484611a93565b61208684848484612316565b6116355760405162461bcd60e51b815260040161092b90612d7f565b6060816120c65750506040805180820190915260018152600360fc1b602082015290565b8160005b81156120f057806120da81612c93565b91506120e99050600a83612de7565b91506120ca565b60008167ffffffffffffffff81111561210b5761210b612881565b6040519080825280601f01601f191660200182016040528015612135576020820181803683370190505b5090505b8415611a8b5761214a600183612c7c565b9150612157600a86612dfb565b612162906030612cae565b60f81b81838151811061217757612177612e0f565b60200101906001600160f81b031916908160001a905350612199600a86612de7565b9450612139565b600054610100900460ff166112875760405162461bcd60e51b815260040161092b90612e25565b600054610100900460ff166121ee5760405162461bcd60e51b815260040161092b90612e25565b611287612423565b600054610100900460ff1661221d5760405162461bcd60e51b815260040161092b90612e25565b610e958282612453565b6001600160a01b0381163b6122945760405162461bcd60e51b815260206004820152602d60248201527f455243313936373a206e657720696d706c656d656e746174696f6e206973206e60448201526c1bdd08184818dbdb9d1c9858dd609a1b606482015260840161092b565b600080516020612f0683398151915280546001600160a01b0319166001600160a01b0392909216919091179055565b6122cc836124a1565b6000825111806122d95750805b15610a615761163583836124e1565b600082815261012f6020908152604080832086845290915281205461230d81846125cc565b95945050505050565b60006001600160a01b0384163b1561241857604051630a85bd0160e11b81526001600160a01b0385169063150b7a029061235a903390899088908890600401612e8f565b602060405180830381600087803b15801561237457600080fd5b505af19250505080156123a4575060408051601f3d908101601f191682019092526123a191810190612ecc565b60015b6123fe573d8080156123d2576040519150601f19603f3d011682016040523d82523d6000602084013e6123d7565b606091505b5080516123f65760405162461bcd60e51b815260040161092b90612d7f565b805181602001fd5b6001600160e01b031916630a85bd0160e11b149050611a8b565b506001949350505050565b600054610100900460ff1661244a5760405162461bcd60e51b815260040161092b90612e25565b61128733611f15565b600054610100900460ff1661247a5760405162461bcd60e51b815260040161092b90612e25565b815161248d9060fb906020850190612692565b508051610a619060fc906020840190612692565b6124aa81612227565b6040516001600160a01b038216907fbc7cd75a20ee27fd9adebab32041f755214dbc6bffa90cc0225b39da2e5c2d3b90600090a250565b60606001600160a01b0383163b6125495760405162461bcd60e51b815260206004820152602660248201527f416464726573733a2064656c65676174652063616c6c20746f206e6f6e2d636f6044820152651b9d1c9858dd60d21b606482015260840161092b565b600080846001600160a01b0316846040516125649190612ee9565b600060405180830381855af49150503d806000811461259f576040519150601f19603f3d011682016040523d82523d6000602084013e6125a4565b606091505b509150915061230d8282604051806060016040528060278152602001612f26602791396125f2565b6000806125d9848461262b565b90506127106125e88483612e70565b611a8b9190612de7565b6060831561260157508161171c565b8251156126115782518084602001fd5b8160405162461bcd60e51b815260040161092b91906127cf565b60008061263a84612710612e70565b9050611a8b8382612de7565b6040518061010001604052806000815260200160008152602001600080191681526020016000151581526020016000815260200160001515815260200160008152602001600081525090565b82805461269e90612b42565b90600052602060002090601f0160209004810192826126c05760008555612706565b82601f106126d957805160ff1916838001178555612706565b82800160010185558215612706579182015b828111156127065782518255916020019190600101906126eb565b50612712929150612716565b5090565b5b808211156127125760008155600101612717565b6001600160e01b031981168114610b7457600080fd5b60006020828403121561275357600080fd5b813561171c8161272b565b60006020828403121561277057600080fd5b5035919050565b60005b8381101561279257818101518382015260200161277a565b838111156116355750506000910152565b600081518084526127bb816020860160208601612777565b601f01601f19169290920160200192915050565b60208152600061171c60208301846127a3565b6001600160a01b0381168114610b7457600080fd5b6000806040838503121561280a57600080fd5b8235612815816127e2565b946020939093013593505050565b60008060006060848603121561283857600080fd5b8335612843816127e2565b92506020840135612853816127e2565b929592945050506040919091013590565b60006020828403121561287657600080fd5b813561171c816127e2565b634e487b7160e01b600052604160045260246000fd5b600082601f8301126128a857600080fd5b813567ffffffffffffffff808211156128c3576128c3612881565b604051601f8301601f19908116603f011681019082821181831017156128eb576128eb612881565b8160405283815286602085880101111561290457600080fd5b836020870160208301376000602085830101528094505050505092915050565b6000806040838503121561293757600080fd5b8235612942816127e2565b9150602083013567ffffffffffffffff81111561295e57600080fd5b61296a85828601612897565b9150509250929050565b6000806040838503121561298757600080fd5b50508035926020909101359150565b6000806000604084860312156129ab57600080fd5b833567ffffffffffffffff808211156129c357600080fd5b818601915086601f8301126129d757600080fd5b8135818111156129e657600080fd5b8760208285010111156129f857600080fd5b6020928301989097509590910135949350505050565b60008060408385031215612a2157600080fd5b8235612a2c816127e2565b915060208301358015158114612a4157600080fd5b809150509250929050565b60008060008060808587031215612a6257600080fd5b8435612a6d816127e2565b93506020850135612a7d816127e2565b925060408501359150606085013567ffffffffffffffff811115612aa057600080fd5b612aac87828801612897565b91505092959194509250565b60008060408385031215612acb57600080fd5b8235612ad6816127e2565b91506020830135612a41816127e2565b60008060008060808587031215612afc57600080fd5b8435612b07816127e2565b93506020850135612b17816127e2565b92506040850135612b27816127e2565b91506060850135612b37816127e2565b939692955090935050565b600181811c90821680612b5657607f821691505b60208210811415612b7757634e487b7160e01b600052602260045260246000fd5b50919050565b60208082526031908201527f4552433732313a207472616e736665722063616c6c6572206973206e6f74206f6040820152701ddb995c881b9bdc88185c1c1c9bdd9959607a1b606082015260800190565b6020808252602c908201527f46756e6374696f6e206d7573742062652063616c6c6564207468726f7567682060408201526b19195b1959d85d1958d85b1b60a21b606082015260800190565b6020808252602c908201527f46756e6374696f6e206d7573742062652063616c6c6564207468726f7567682060408201526b6163746976652070726f787960a01b606082015260800190565b634e487b7160e01b600052601160045260246000fd5b600082821015612c8e57612c8e612c66565b500390565b6000600019821415612ca757612ca7612c66565b5060010190565b60008219821115612cc157612cc1612c66565b500190565b6020808252818101527f4f776e61626c653a2063616c6c6572206973206e6f7420746865206f776e6572604082015260600190565b8183823760009101908152919050565b60008351612d1d818460208801612777565b835190830190612d31818360208801612777565b01949350505050565b600060208284031215612d4c57600080fd5b5051919050565b8385823790920190815260609190911b6bffffffffffffffffffffffff19166020820152603401919050565b60208082526032908201527f4552433732313a207472616e7366657220746f206e6f6e20455243373231526560408201527131b2b4bb32b91034b6b83632b6b2b73a32b960711b606082015260800190565b634e487b7160e01b600052601260045260246000fd5b600082612df657612df6612dd1565b500490565b600082612e0a57612e0a612dd1565b500690565b634e487b7160e01b600052603260045260246000fd5b6020808252602b908201527f496e697469616c697a61626c653a20636f6e7472616374206973206e6f74206960408201526a6e697469616c697a696e6760a81b606082015260800190565b6000816000190483118215151615612e8a57612e8a612c66565b500290565b6001600160a01b0385811682528416602082015260408101839052608060608201819052600090612ec2908301846127a3565b9695505050505050565b600060208284031215612ede57600080fd5b815161171c8161272b565b60008251612efb818460208701612777565b919091019291505056fe360894a13ba1a3210667c828492db98dca3e2076cc3735a920a3ca505d382bbc416464726573733a206c6f772d6c6576656c2064656c65676174652063616c6c206661696c6564a26469706673582212203eaf0a27a5758c7ff0ee2e21fe0ddbfbd69a6f56b64fd2f3e10048f76fae3f5c64736f6c63430008090033",
  "devdoc": {
    "events": {
      "OilContractDeedPurchased(uint256,uint256,uint256)": {
        "details": "function will create Oil contract"
      }
    },
    "kind": "dev",
    "methods": {
      "approve(address,uint256)": {
        "details": "See {IERC721-approve}."
      },
      "balanceOf(address)": {
        "details": "See {IERC721-balanceOf}."
      },
      "createOilContract(string,uint256)": {
        "details": "function will create oil contract",
        "params": {
          "contractName": ": the name of contract",
          "contractValue": ": the total value of contract*"
        }
      },
      "dispatchPayments(uint256)": {
        "details": "functions dispatches and records payments to each ownerOf NFT associated with contract"
      },
      "getApproved(uint256)": {
        "details": "See {IERC721-getApproved}."
      },
      "isApprovedForAll(address,address)": {
        "details": "See {IERC721-isApprovedForAll}."
      },
      "makeContractAvail(uint256)": {
        "details": "makeContractAvail will make well contract avail to public to buyStakeInOilContract"
      },
      "makeContractUnAvail(uint256)": {
        "details": "makeContractUnAvail will make well contract avail to public to buyStakeInOilContract"
      },
      "name()": {
        "details": "See {IERC721Metadata-name}."
      },
      "owner()": {
        "details": "Returns the address of the current owner."
      },
      "ownerOf(uint256)": {
        "details": "See {IERC721-ownerOf}."
      },
      "proxiableUUID()": {
        "details": "Implementation of the ERC1822 {proxiableUUID} function. This returns the storage slot used by the implementation. It is used to validate that the this implementation remains valid after an upgrade. IMPORTANT: A proxy pointing at a proxiable contract should not be considered proxiable itself, because this risks bricking a proxy that upgrades to it, by delegating to itself until out of gas. Thus it is critical that this function revert if invoked through a proxy. This is guaranteed by the `notDelegated` modifier."
      },
      "purchaseContractStake(uint256)": {
        "details": "purchaseContractStake will update contracts and dispatch NFTS to funders",
        "params": {
          "contractId": ": id of contract"
        }
      },
      "renounceOwnership()": {
        "details": "Leaves the contract without owner. It will not be possible to call `onlyOwner` functions anymore. Can only be called by the current owner. NOTE: Renouncing ownership will leave the contract without an owner, thereby removing any functionality that is only available to the owner."
      },
      "safeTransferFrom(address,address,uint256)": {
        "details": "See {IERC721-safeTransferFrom}."
      },
      "safeTransferFrom(address,address,uint256,bytes)": {
        "details": "See {IERC721-safeTransferFrom}."
      },
      "setApprovalForAll(address,bool)": {
        "details": "See {IERC721-setApprovalForAll}."
      },
      "supportsInterface(bytes4)": {
        "details": "See {IERC165-supportsInterface}."
      },
      "symbol()": {
        "details": "See {IERC721Metadata-symbol}."
      },
      "tokenURI(uint256)": {
        "details": "See {IERC721Metadata-tokenURI}."
      },
      "transferFrom(address,address,uint256)": {
        "details": "See {IERC721-transferFrom}."
      },
      "transferOwnership(address)": {
        "details": "Transfers ownership of the contract to a new account (`newOwner`). Can only be called by the current owner."
      },
      "upgradeTo(address)": {
        "details": "Upgrade the implementation of the proxy to `newImplementation`. Calls {_authorizeUpgrade}. Emits an {Upgraded} event."
      },
      "upgradeToAndCall(address,bytes)": {
        "details": "Upgrade the implementation of the proxy to `newImplementation`, and subsequently execute the function call encoded in `data`. Calls {_authorizeUpgrade}. Emits an {Upgraded} event."
      }
    },
    "stateVariables": {
      "swapRouter": {
        "details": "contracts which have been extended must have thir intializer/constructor invoked __{contractName}_init acts as a constructor param newOwner multsig wallet should be initialized as newOwner"
      }
    },
    "version": 1
  },
  "userdoc": {
    "kind": "user",
    "methods": {},
    "version": 1
  },
  "storageLayout": {
    "storage": [
      {
        "astId": 4045,
        "contract": "contracts/PetroStake.sol:PetroStake",
        "label": "_initialized",
        "offset": 0,
        "slot": "0",
        "type": "t_bool"
      },
      {
        "astId": 4048,
        "contract": "contracts/PetroStake.sol:PetroStake",
        "label": "_initializing",
        "offset": 1,
        "slot": "0",
        "type": "t_bool"
      },
      {
        "astId": 4027,
        "contract": "contracts/PetroStake.sol:PetroStake",
        "label": "__gap",
        "offset": 0,
        "slot": "1",
        "type": "t_array(t_uint256)50_storage"
      },
      {
        "astId": 4247,
        "contract": "contracts/PetroStake.sol:PetroStake",
        "label": "__gap",
        "offset": 0,
        "slot": "51",
        "type": "t_array(t_uint256)50_storage"
      },
      {
        "astId": 7188,
        "contract": "contracts/PetroStake.sol:PetroStake",
        "label": "__gap",
        "offset": 0,
        "slot": "101",
        "type": "t_array(t_uint256)50_storage"
      },
      {
        "astId": 412,
        "contract": "contracts/PetroStake.sol:PetroStake",
        "label": "_owner",
        "offset": 0,
        "slot": "151",
        "type": "t_address"
      },
      {
        "astId": 524,
        "contract": "contracts/PetroStake.sol:PetroStake",
        "label": "__gap",
        "offset": 0,
        "slot": "152",
        "type": "t_array(t_uint256)49_storage"
      },
      {
        "astId": 8340,
        "contract": "contracts/PetroStake.sol:PetroStake",
        "label": "__gap",
        "offset": 0,
        "slot": "201",
        "type": "t_array(t_uint256)50_storage"
      },
      {
        "astId": 5881,
        "contract": "contracts/PetroStake.sol:PetroStake",
        "label": "_name",
        "offset": 0,
        "slot": "251",
        "type": "t_string_storage"
      },
      {
        "astId": 5883,
        "contract": "contracts/PetroStake.sol:PetroStake",
        "label": "_symbol",
        "offset": 0,
        "slot": "252",
        "type": "t_string_storage"
      },
      {
        "astId": 5887,
        "contract": "contracts/PetroStake.sol:PetroStake",
        "label": "_owners",
        "offset": 0,
        "slot": "253",
        "type": "t_mapping(t_uint256,t_address)"
      },
      {
        "astId": 5891,
        "contract": "contracts/PetroStake.sol:PetroStake",
        "label": "_balances",
        "offset": 0,
        "slot": "254",
        "type": "t_mapping(t_address,t_uint256)"
      },
      {
        "astId": 5895,
        "contract": "contracts/PetroStake.sol:PetroStake",
        "label": "_tokenApprovals",
        "offset": 0,
        "slot": "255",
        "type": "t_mapping(t_uint256,t_address)"
      },
      {
        "astId": 5901,
        "contract": "contracts/PetroStake.sol:PetroStake",
        "label": "_operatorApprovals",
        "offset": 0,
        "slot": "256",
        "type": "t_mapping(t_address,t_mapping(t_address,t_bool))"
      },
      {
        "astId": 6742,
        "contract": "contracts/PetroStake.sol:PetroStake",
        "label": "__gap",
        "offset": 0,
        "slot": "257",
        "type": "t_array(t_uint256)44_storage"
      },
      {
        "astId": 9099,
        "contract": "contracts/PetroStake.sol:PetroStake",
        "label": "contractIds",
        "offset": 0,
        "slot": "301",
        "type": "t_uint256"
      },
      {
        "astId": 9104,
        "contract": "contracts/PetroStake.sol:PetroStake",
        "label": "oilContracts",
        "offset": 0,
        "slot": "302",
        "type": "t_mapping(t_uint256,t_struct(OilContract)9138_storage)"
      },
      {
        "astId": 9110,
        "contract": "contracts/PetroStake.sol:PetroStake",
        "label": "contractIdToNftAmount",
        "offset": 0,
        "slot": "303",
        "type": "t_mapping(t_bytes32,t_mapping(t_uint256,t_uint256))"
      },
      {
        "astId": 9114,
        "contract": "contracts/PetroStake.sol:PetroStake",
        "label": "swapRouter",
        "offset": 0,
        "slot": "304",
        "type": "t_contract(ISwapRouter)8948"
      },
      {
        "astId": 9116,
        "contract": "contracts/PetroStake.sol:PetroStake",
        "label": "USDC",
        "offset": 0,
        "slot": "305",
        "type": "t_address"
      },
      {
        "astId": 9118,
        "contract": "contracts/PetroStake.sol:PetroStake",
        "label": "WETH",
        "offset": 0,
        "slot": "306",
        "type": "t_address"
      }
    ],
    "types": {
      "t_address": {
        "encoding": "inplace",
        "label": "address",
        "numberOfBytes": "20"
      },
      "t_array(t_uint256)44_storage": {
        "base": "t_uint256",
        "encoding": "inplace",
        "label": "uint256[44]",
        "numberOfBytes": "1408"
      },
      "t_array(t_uint256)49_storage": {
        "base": "t_uint256",
        "encoding": "inplace",
        "label": "uint256[49]",
        "numberOfBytes": "1568"
      },
      "t_array(t_uint256)50_storage": {
        "base": "t_uint256",
        "encoding": "inplace",
        "label": "uint256[50]",
        "numberOfBytes": "1600"
      },
      "t_bool": {
        "encoding": "inplace",
        "label": "bool",
        "numberOfBytes": "1"
      },
      "t_bytes32": {
        "encoding": "inplace",
        "label": "bytes32",
        "numberOfBytes": "32"
      },
      "t_contract(ISwapRouter)8948": {
        "encoding": "inplace",
        "label": "contract ISwapRouter",
        "numberOfBytes": "20"
      },
      "t_mapping(t_address,t_bool)": {
        "encoding": "mapping",
        "key": "t_address",
        "label": "mapping(address => bool)",
        "numberOfBytes": "32",
        "value": "t_bool"
      },
      "t_mapping(t_address,t_mapping(t_address,t_bool))": {
        "encoding": "mapping",
        "key": "t_address",
        "label": "mapping(address => mapping(address => bool))",
        "numberOfBytes": "32",
        "value": "t_mapping(t_address,t_bool)"
      },
      "t_mapping(t_address,t_uint256)": {
        "encoding": "mapping",
        "key": "t_address",
        "label": "mapping(address => uint256)",
        "numberOfBytes": "32",
        "value": "t_uint256"
      },
      "t_mapping(t_bytes32,t_mapping(t_uint256,t_uint256))": {
        "encoding": "mapping",
        "key": "t_bytes32",
        "label": "mapping(bytes32 => mapping(uint256 => uint256))",
        "numberOfBytes": "32",
        "value": "t_mapping(t_uint256,t_uint256)"
      },
      "t_mapping(t_uint256,t_address)": {
        "encoding": "mapping",
        "key": "t_uint256",
        "label": "mapping(uint256 => address)",
        "numberOfBytes": "32",
        "value": "t_address"
      },
      "t_mapping(t_uint256,t_struct(OilContract)9138_storage)": {
        "encoding": "mapping",
        "key": "t_uint256",
        "label": "mapping(uint256 => struct PetroStake.OilContract)",
        "numberOfBytes": "32",
        "value": "t_struct(OilContract)9138_storage"
      },
      "t_mapping(t_uint256,t_uint256)": {
        "encoding": "mapping",
        "key": "t_uint256",
        "label": "mapping(uint256 => uint256)",
        "numberOfBytes": "32",
        "value": "t_uint256"
      },
      "t_string_storage": {
        "encoding": "bytes",
        "label": "string",
        "numberOfBytes": "32"
      },
      "t_struct(OilContract)9138_storage": {
        "encoding": "inplace",
        "label": "struct PetroStake.OilContract",
        "members": [
          {
            "astId": 9123,
            "contract": "contracts/PetroStake.sol:PetroStake",
            "label": "id",
            "offset": 0,
            "slot": "0",
            "type": "t_uint256"
          },
          {
            "astId": 9125,
            "contract": "contracts/PetroStake.sol:PetroStake",
            "label": "totalValue",
            "offset": 0,
            "slot": "1",
            "type": "t_uint256"
          },
          {
            "astId": 9127,
            "contract": "contracts/PetroStake.sol:PetroStake",
            "label": "name",
            "offset": 0,
            "slot": "2",
            "type": "t_bytes32"
          },
          {
            "astId": 9129,
            "contract": "contracts/PetroStake.sol:PetroStake",
            "label": "available",
            "offset": 0,
            "slot": "3",
            "type": "t_bool"
          },
          {
            "astId": 9131,
            "contract": "contracts/PetroStake.sol:PetroStake",
            "label": "totalValueLocked",
            "offset": 0,
            "slot": "4",
            "type": "t_uint256"
          },
          {
            "astId": 9133,
            "contract": "contracts/PetroStake.sol:PetroStake",
            "label": "funded",
            "offset": 0,
            "slot": "5",
            "type": "t_bool"
          },
          {
            "astId": 9135,
            "contract": "contracts/PetroStake.sol:PetroStake",
            "label": "nftIds",
            "offset": 0,
            "slot": "6",
            "type": "t_uint256"
          },
          {
            "astId": 9137,
            "contract": "contracts/PetroStake.sol:PetroStake",
            "label": "paymentId",
            "offset": 0,
            "slot": "7",
            "type": "t_uint256"
          }
        ],
        "numberOfBytes": "256"
      },
      "t_uint256": {
        "encoding": "inplace",
        "label": "uint256",
        "numberOfBytes": "32"
      }
    }
  }
}