{
  "address": "0xDc64a140Aa3E981100a9becA4E685f962f0cF6C9",
  "abi": [
    {
      "inputs": [],
      "stateMutability": "nonpayable",
      "type": "constructor"
    },
    {
      "anonymous": false,
      "inputs": [
        {
          "indexed": false,
          "internalType": "address",
          "name": "previousAdmin",
          "type": "address"
        },
        {
          "indexed": false,
          "internalType": "address",
          "name": "newAdmin",
          "type": "address"
        }
      ],
      "name": "AdminChanged",
      "type": "event"
    },
    {
      "anonymous": false,
      "inputs": [
        {
          "indexed": true,
          "internalType": "address",
          "name": "beacon",
          "type": "address"
        }
      ],
      "name": "BeaconUpgraded",
      "type": "event"
    },
    {
      "anonymous": false,
      "inputs": [
        {
          "indexed": true,
          "internalType": "bytes32",
          "name": "id",
          "type": "bytes32"
        },
        {
          "indexed": true,
          "internalType": "uint256",
          "name": "index",
          "type": "uint256"
        },
        {
          "indexed": false,
          "internalType": "address",
          "name": "target",
          "type": "address"
        },
        {
          "indexed": false,
          "internalType": "uint256",
          "name": "value",
          "type": "uint256"
        },
        {
          "indexed": false,
          "internalType": "bytes",
          "name": "data",
          "type": "bytes"
        }
      ],
      "name": "CallExecuted",
      "type": "event"
    },
    {
      "anonymous": false,
      "inputs": [
        {
          "indexed": true,
          "internalType": "bytes32",
          "name": "id",
          "type": "bytes32"
        },
        {
          "indexed": true,
          "internalType": "uint256",
          "name": "index",
          "type": "uint256"
        },
        {
          "indexed": false,
          "internalType": "address",
          "name": "target",
          "type": "address"
        },
        {
          "indexed": false,
          "internalType": "uint256",
          "name": "value",
          "type": "uint256"
        },
        {
          "indexed": false,
          "internalType": "bytes",
          "name": "data",
          "type": "bytes"
        },
        {
          "indexed": false,
          "internalType": "bytes32",
          "name": "predecessor",
          "type": "bytes32"
        },
        {
          "indexed": false,
          "internalType": "uint256",
          "name": "delay",
          "type": "uint256"
        }
      ],
      "name": "CallScheduled",
      "type": "event"
    },
    {
      "anonymous": false,
      "inputs": [
        {
          "indexed": true,
          "internalType": "bytes32",
          "name": "id",
          "type": "bytes32"
        }
      ],
      "name": "Cancelled",
      "type": "event"
    },
    {
      "anonymous": false,
      "inputs": [
        {
          "indexed": false,
          "internalType": "uint256",
          "name": "oldDuration",
          "type": "uint256"
        },
        {
          "indexed": false,
          "internalType": "uint256",
          "name": "newDuration",
          "type": "uint256"
        }
      ],
      "name": "MinDelayChange",
      "type": "event"
    },
    {
      "anonymous": false,
      "inputs": [
        {
          "indexed": true,
          "internalType": "bytes32",
          "name": "role",
          "type": "bytes32"
        },
        {
          "indexed": true,
          "internalType": "bytes32",
          "name": "previousAdminRole",
          "type": "bytes32"
        },
        {
          "indexed": true,
          "internalType": "bytes32",
          "name": "newAdminRole",
          "type": "bytes32"
        }
      ],
      "name": "RoleAdminChanged",
      "type": "event"
    },
    {
      "anonymous": false,
      "inputs": [
        {
          "indexed": true,
          "internalType": "bytes32",
          "name": "role",
          "type": "bytes32"
        },
        {
          "indexed": true,
          "internalType": "address",
          "name": "account",
          "type": "address"
        },
        {
          "indexed": true,
          "internalType": "address",
          "name": "sender",
          "type": "address"
        }
      ],
      "name": "RoleGranted",
      "type": "event"
    },
    {
      "anonymous": false,
      "inputs": [
        {
          "indexed": true,
          "internalType": "bytes32",
          "name": "role",
          "type": "bytes32"
        },
        {
          "indexed": true,
          "internalType": "address",
          "name": "account",
          "type": "address"
        },
        {
          "indexed": true,
          "internalType": "address",
          "name": "sender",
          "type": "address"
        }
      ],
      "name": "RoleRevoked",
      "type": "event"
    },
    {
      "anonymous": false,
      "inputs": [
        {
          "indexed": true,
          "internalType": "address",
          "name": "implementation",
          "type": "address"
        }
      ],
      "name": "Upgraded",
      "type": "event"
    },
    {
      "inputs": [],
      "name": "DEFAULT_ADMIN_ROLE",
      "outputs": [
        {
          "internalType": "bytes32",
          "name": "",
          "type": "bytes32"
        }
      ],
      "stateMutability": "view",
      "type": "function"
    },
    {
      "inputs": [],
      "name": "EXECUTOR_ROLE",
      "outputs": [
        {
          "internalType": "bytes32",
          "name": "",
          "type": "bytes32"
        }
      ],
      "stateMutability": "view",
      "type": "function"
    },
    {
      "inputs": [],
      "name": "PROPOSER_ROLE",
      "outputs": [
        {
          "internalType": "bytes32",
          "name": "",
          "type": "bytes32"
        }
      ],
      "stateMutability": "view",
      "type": "function"
    },
    {
      "inputs": [],
      "name": "TIMELOCK_ADMIN_ROLE",
      "outputs": [
        {
          "internalType": "bytes32",
          "name": "",
          "type": "bytes32"
        }
      ],
      "stateMutability": "view",
      "type": "function"
    },
    {
      "inputs": [
        {
          "internalType": "bytes32",
          "name": "id",
          "type": "bytes32"
        }
      ],
      "name": "cancel",
      "outputs": [],
      "stateMutability": "nonpayable",
      "type": "function"
    },
    {
      "inputs": [
        {
          "internalType": "address",
          "name": "target",
          "type": "address"
        },
        {
          "internalType": "uint256",
          "name": "value",
          "type": "uint256"
        },
        {
          "internalType": "bytes",
          "name": "data",
          "type": "bytes"
        },
        {
          "internalType": "bytes32",
          "name": "predecessor",
          "type": "bytes32"
        },
        {
          "internalType": "bytes32",
          "name": "salt",
          "type": "bytes32"
        }
      ],
      "name": "execute",
      "outputs": [],
      "stateMutability": "payable",
      "type": "function"
    },
    {
      "inputs": [
        {
          "internalType": "address[]",
          "name": "targets",
          "type": "address[]"
        },
        {
          "internalType": "uint256[]",
          "name": "values",
          "type": "uint256[]"
        },
        {
          "internalType": "bytes[]",
          "name": "datas",
          "type": "bytes[]"
        },
        {
          "internalType": "bytes32",
          "name": "predecessor",
          "type": "bytes32"
        },
        {
          "internalType": "bytes32",
          "name": "salt",
          "type": "bytes32"
        }
      ],
      "name": "executeBatch",
      "outputs": [],
      "stateMutability": "payable",
      "type": "function"
    },
    {
      "inputs": [],
      "name": "getMinDelay",
      "outputs": [
        {
          "internalType": "uint256",
          "name": "duration",
          "type": "uint256"
        }
      ],
      "stateMutability": "view",
      "type": "function"
    },
    {
      "inputs": [
        {
          "internalType": "bytes32",
          "name": "role",
          "type": "bytes32"
        }
      ],
      "name": "getRoleAdmin",
      "outputs": [
        {
          "internalType": "bytes32",
          "name": "",
          "type": "bytes32"
        }
      ],
      "stateMutability": "view",
      "type": "function"
    },
    {
      "inputs": [
        {
          "internalType": "bytes32",
          "name": "id",
          "type": "bytes32"
        }
      ],
      "name": "getTimestamp",
      "outputs": [
        {
          "internalType": "uint256",
          "name": "timestamp",
          "type": "uint256"
        }
      ],
      "stateMutability": "view",
      "type": "function"
    },
    {
      "inputs": [
        {
          "internalType": "bytes32",
          "name": "role",
          "type": "bytes32"
        },
        {
          "internalType": "address",
          "name": "account",
          "type": "address"
        }
      ],
      "name": "grantRole",
      "outputs": [],
      "stateMutability": "nonpayable",
      "type": "function"
    },
    {
      "inputs": [
        {
          "internalType": "bytes32",
          "name": "role",
          "type": "bytes32"
        },
        {
          "internalType": "address",
          "name": "account",
          "type": "address"
        }
      ],
      "name": "hasRole",
      "outputs": [
        {
          "internalType": "bool",
          "name": "",
          "type": "bool"
        }
      ],
      "stateMutability": "view",
      "type": "function"
    },
    {
      "inputs": [
        {
          "internalType": "address",
          "name": "target",
          "type": "address"
        },
        {
          "internalType": "uint256",
          "name": "value",
          "type": "uint256"
        },
        {
          "internalType": "bytes",
          "name": "data",
          "type": "bytes"
        },
        {
          "internalType": "bytes32",
          "name": "predecessor",
          "type": "bytes32"
        },
        {
          "internalType": "bytes32",
          "name": "salt",
          "type": "bytes32"
        }
      ],
      "name": "hashOperation",
      "outputs": [
        {
          "internalType": "bytes32",
          "name": "hash",
          "type": "bytes32"
        }
      ],
      "stateMutability": "pure",
      "type": "function"
    },
    {
      "inputs": [
        {
          "internalType": "address[]",
          "name": "targets",
          "type": "address[]"
        },
        {
          "internalType": "uint256[]",
          "name": "values",
          "type": "uint256[]"
        },
        {
          "internalType": "bytes[]",
          "name": "datas",
          "type": "bytes[]"
        },
        {
          "internalType": "bytes32",
          "name": "predecessor",
          "type": "bytes32"
        },
        {
          "internalType": "bytes32",
          "name": "salt",
          "type": "bytes32"
        }
      ],
      "name": "hashOperationBatch",
      "outputs": [
        {
          "internalType": "bytes32",
          "name": "hash",
          "type": "bytes32"
        }
      ],
      "stateMutability": "pure",
      "type": "function"
    },
    {
      "inputs": [
        {
          "internalType": "uint256",
          "name": "minDelay",
          "type": "uint256"
        },
        {
          "internalType": "address[]",
          "name": "proposers",
          "type": "address[]"
        },
        {
          "internalType": "address[]",
          "name": "executors",
          "type": "address[]"
        }
      ],
      "name": "initialize",
      "outputs": [],
      "stateMutability": "nonpayable",
      "type": "function"
    },
    {
      "inputs": [
        {
          "internalType": "bytes32",
          "name": "id",
          "type": "bytes32"
        }
      ],
      "name": "isOperation",
      "outputs": [
        {
          "internalType": "bool",
          "name": "pending",
          "type": "bool"
        }
      ],
      "stateMutability": "view",
      "type": "function"
    },
    {
      "inputs": [
        {
          "internalType": "bytes32",
          "name": "id",
          "type": "bytes32"
        }
      ],
      "name": "isOperationDone",
      "outputs": [
        {
          "internalType": "bool",
          "name": "done",
          "type": "bool"
        }
      ],
      "stateMutability": "view",
      "type": "function"
    },
    {
      "inputs": [
        {
          "internalType": "bytes32",
          "name": "id",
          "type": "bytes32"
        }
      ],
      "name": "isOperationPending",
      "outputs": [
        {
          "internalType": "bool",
          "name": "pending",
          "type": "bool"
        }
      ],
      "stateMutability": "view",
      "type": "function"
    },
    {
      "inputs": [
        {
          "internalType": "bytes32",
          "name": "id",
          "type": "bytes32"
        }
      ],
      "name": "isOperationReady",
      "outputs": [
        {
          "internalType": "bool",
          "name": "ready",
          "type": "bool"
        }
      ],
      "stateMutability": "view",
      "type": "function"
    },
    {
      "inputs": [],
      "name": "proxiableUUID",
      "outputs": [
        {
          "internalType": "bytes32",
          "name": "",
          "type": "bytes32"
        }
      ],
      "stateMutability": "view",
      "type": "function"
    },
    {
      "inputs": [
        {
          "internalType": "bytes32",
          "name": "role",
          "type": "bytes32"
        },
        {
          "internalType": "address",
          "name": "account",
          "type": "address"
        }
      ],
      "name": "renounceRole",
      "outputs": [],
      "stateMutability": "nonpayable",
      "type": "function"
    },
    {
      "inputs": [
        {
          "internalType": "bytes32",
          "name": "role",
          "type": "bytes32"
        },
        {
          "internalType": "address",
          "name": "account",
          "type": "address"
        }
      ],
      "name": "revokeRole",
      "outputs": [],
      "stateMutability": "nonpayable",
      "type": "function"
    },
    {
      "inputs": [
        {
          "internalType": "address",
          "name": "target",
          "type": "address"
        },
        {
          "internalType": "uint256",
          "name": "value",
          "type": "uint256"
        },
        {
          "internalType": "bytes",
          "name": "data",
          "type": "bytes"
        },
        {
          "internalType": "bytes32",
          "name": "predecessor",
          "type": "bytes32"
        },
        {
          "internalType": "bytes32",
          "name": "salt",
          "type": "bytes32"
        },
        {
          "internalType": "uint256",
          "name": "delay",
          "type": "uint256"
        }
      ],
      "name": "schedule",
      "outputs": [],
      "stateMutability": "nonpayable",
      "type": "function"
    },
    {
      "inputs": [
        {
          "internalType": "address[]",
          "name": "targets",
          "type": "address[]"
        },
        {
          "internalType": "uint256[]",
          "name": "values",
          "type": "uint256[]"
        },
        {
          "internalType": "bytes[]",
          "name": "datas",
          "type": "bytes[]"
        },
        {
          "internalType": "bytes32",
          "name": "predecessor",
          "type": "bytes32"
        },
        {
          "internalType": "bytes32",
          "name": "salt",
          "type": "bytes32"
        },
        {
          "internalType": "uint256",
          "name": "delay",
          "type": "uint256"
        }
      ],
      "name": "scheduleBatch",
      "outputs": [],
      "stateMutability": "nonpayable",
      "type": "function"
    },
    {
      "inputs": [
        {
          "internalType": "bytes4",
          "name": "interfaceId",
          "type": "bytes4"
        }
      ],
      "name": "supportsInterface",
      "outputs": [
        {
          "internalType": "bool",
          "name": "",
          "type": "bool"
        }
      ],
      "stateMutability": "view",
      "type": "function"
    },
    {
      "inputs": [
        {
          "internalType": "uint256",
          "name": "newDelay",
          "type": "uint256"
        }
      ],
      "name": "updateDelay",
      "outputs": [],
      "stateMutability": "nonpayable",
      "type": "function"
    },
    {
      "inputs": [
        {
          "internalType": "address",
          "name": "newImplementation",
          "type": "address"
        }
      ],
      "name": "upgradeTo",
      "outputs": [],
      "stateMutability": "nonpayable",
      "type": "function"
    },
    {
      "inputs": [
        {
          "internalType": "address",
          "name": "newImplementation",
          "type": "address"
        },
        {
          "internalType": "bytes",
          "name": "data",
          "type": "bytes"
        }
      ],
      "name": "upgradeToAndCall",
      "outputs": [],
      "stateMutability": "payable",
      "type": "function"
    },
    {
      "stateMutability": "payable",
      "type": "receive"
    }
  ],
  "numDeployments": 1,
  "solcInputHash": "5868fce29c5a578eca3662fe867a7004",
  "bytecode": "0x60a06040523060805234801561001457600080fd5b5060805161275961004c60003960008181610770015281816107b00152818161085001528181610890015261091f01526127596000f3fe6080604052600436106101bb5760003560e01c8063584b153e116100ec578063a217fddf1161008a578063d45c443511610064578063d45c4435146104e2578063d547741f1461050f578063e38335e51461052f578063f27a0c921461054257600080fd5b8063a217fddf1461048d578063b1c5f427146104a2578063c4d252f5146104c257600080fd5b80638065657f116100c65780638065657f1461040b5780638f2a0bb01461042b5780638f61f4f51461044b57806391d148541461046d57600080fd5b8063584b153e146103ab57806364d62353146103cb5780637fbc79c6146103eb57600080fd5b80632ab0f5291161015957806336568abe1161013357806336568abe146103435780633659cfe6146103635780634f1ef2861461038357806352d1902d1461039657600080fd5b80632ab0f529146102d35780632f2ff15d1461030357806331d507501461032357600080fd5b80630d3cf6fc116101955780630d3cf6fc1461024e578063134008d31461027057806313bc9f2014610283578063248a9ca3146102a357600080fd5b806301d5062a146101c757806301ffc9a7146101e957806307bd02651461021e57600080fd5b366101c257005b600080fd5b3480156101d357600080fd5b506101e76101e2366004611bfa565b610557565b005b3480156101f557600080fd5b50610209610204366004611c6e565b6105db565b60405190151581526020015b60405180910390f35b34801561022a57600080fd5b5061024060008051602061270483398151915281565b604051908152602001610215565b34801561025a57600080fd5b5061024060008051602061266f83398151915281565b6101e761027e366004611c98565b610612565b34801561028f57600080fd5b5061020961029e366004611d03565b610678565b3480156102af57600080fd5b506102406102be366004611d03565b600090815260c9602052604090206001015490565b3480156102df57600080fd5b506102096102ee366004611d03565b600090815260fb602052604090205460011490565b34801561030f57600080fd5b506101e761031e366004611d1c565b61069e565b34801561032f57600080fd5b5061020961033e366004611d03565b6106c9565b34801561034f57600080fd5b506101e761035e366004611d1c565b6106e2565b34801561036f57600080fd5b506101e761037e366004611d48565b610765565b6101e7610391366004611da9565b610845565b3480156103a257600080fd5b50610240610912565b3480156103b757600080fd5b506102096103c6366004611d03565b6109c5565b3480156103d757600080fd5b506101e76103e6366004611d03565b6109dc565b3480156103f757600080fd5b506101e7610406366004611ed4565b610a80565b34801561041757600080fd5b50610240610426366004611c98565b610b71565b34801561043757600080fd5b506101e7610446366004611f84565b610bb0565b34801561045757600080fd5b506102406000805160206126e483398151915281565b34801561047957600080fd5b50610209610488366004611d1c565b610cf1565b34801561049957600080fd5b50610240600081565b3480156104ae57600080fd5b506102406104bd366004612035565b610d1c565b3480156104ce57600080fd5b506101e76104dd366004611d03565b610d61565b3480156104ee57600080fd5b506102406104fd366004611d03565b600090815260fb602052604090205490565b34801561051b57600080fd5b506101e761052a366004611d1c565b610e25565b6101e761053d366004612035565b610e4b565b34801561054e57600080fd5b5060fc54610240565b6000805160206126e48339815191526105708133610f6e565b6000610580898989898989610b71565b905061058c8184610fd2565b6000817f4cf4410cc57040e44862ef0f45f3dd5a5e02db8eb8add648d4b0e236f1d07dca8b8b8b8b8b8a6040516105c896959493929190612106565b60405180910390a3505050505050505050565b60006001600160e01b03198216637965db0b60e01b148061060c57506301ffc9a760e01b6001600160e01b03198316145b92915050565b60008051602061270483398151915261062c816000610cf1565b61063a5761063a8133610f6e565b600061064a888888888888610b71565b905061065681856110c1565b6106658160008a8a8a8a61115c565b61066e81611270565b5050505050505050565b600081815260fb60205260408120546001811180156106975750428111155b9392505050565b600082815260c960205260409020600101546106ba8133610f6e565b6106c483836112a9565b505050565b600081815260fb602052604081205481905b1192915050565b6001600160a01b03811633146107575760405162461bcd60e51b815260206004820152602f60248201527f416363657373436f6e74726f6c3a2063616e206f6e6c792072656e6f756e636560448201526e103937b632b9903337b91039b2b63360891b60648201526084015b60405180910390fd5b610761828261132f565b5050565b306001600160a01b037f00000000000000000000000000000000000000000000000000000000000000001614156107ae5760405162461bcd60e51b815260040161074e90612143565b7f00000000000000000000000000000000000000000000000000000000000000006001600160a01b03166107f760008051602061264f833981519152546001600160a01b031690565b6001600160a01b03161461081d5760405162461bcd60e51b815260040161074e9061218f565b61082681611396565b60408051600080825260208201909252610842918391906113af565b50565b306001600160a01b037f000000000000000000000000000000000000000000000000000000000000000016141561088e5760405162461bcd60e51b815260040161074e90612143565b7f00000000000000000000000000000000000000000000000000000000000000006001600160a01b03166108d760008051602061264f833981519152546001600160a01b031690565b6001600160a01b0316146108fd5760405162461bcd60e51b815260040161074e9061218f565b61090682611396565b610761828260016113af565b6000306001600160a01b037f000000000000000000000000000000000000000000000000000000000000000016146109b25760405162461bcd60e51b815260206004820152603860248201527f555550535570677261646561626c653a206d757374206e6f742062652063616c60448201527f6c6564207468726f7567682064656c656761746563616c6c0000000000000000606482015260840161074e565b5060008051602061264f83398151915290565b600081815260fb60205260408120546001906106db565b333014610a3f5760405162461bcd60e51b815260206004820152602b60248201527f54696d656c6f636b436f6e74726f6c6c65723a2063616c6c6572206d7573742060448201526a62652074696d656c6f636b60a81b606482015260840161074e565b60fc5460408051918252602082018390527f11c24f4ead16507c69ac467fbd5e4eed5fb5c699626d2cc6d66421df253886d5910160405180910390a160fc55565b600054610100900460ff16610a9b5760005460ff1615610a9f565b303b155b610b025760405162461bcd60e51b815260206004820152602e60248201527f496e697469616c697a61626c653a20636f6e747261637420697320616c72656160448201526d191e481a5b9a5d1a585b1a5e995960921b606482015260840161074e565b600054610100900460ff16158015610b24576000805461ffff19166101011790555b610b2c611529565b610b37848484611552565b610b596040518060600160405280602e81526020016126b6602e913933611584565b8015610b6b576000805461ff00191690555b50505050565b6000868686868686604051602001610b8e96959493929190612106565b6040516020818303038152906040528051906020012090509695505050505050565b6000805160206126e4833981519152610bc98133610f6e565b888714610be85760405162461bcd60e51b815260040161074e906121db565b888514610c075760405162461bcd60e51b815260040161074e906121db565b6000610c198b8b8b8b8b8b8b8b610d1c565b9050610c258184610fd2565b60005b8a811015610ce35780827f4cf4410cc57040e44862ef0f45f3dd5a5e02db8eb8add648d4b0e236f1d07dca8e8e85818110610c6557610c6561221e565b9050602002016020810190610c7a9190611d48565b8d8d86818110610c8c57610c8c61221e565b905060200201358c8c87818110610ca557610ca561221e565b9050602002810190610cb79190612234565b8c8b604051610ccb96959493929190612106565b60405180910390a3610cdc81612290565b9050610c28565b505050505050505050505050565b600091825260c9602090815260408084206001600160a01b0393909316845291905290205460ff1690565b60008888888888888888604051602001610d3d98979695949392919061233f565b60405160208183030381529060405280519060200120905098975050505050505050565b6000805160206126e4833981519152610d7a8133610f6e565b610d83826109c5565b610de95760405162461bcd60e51b815260206004820152603160248201527f54696d656c6f636b436f6e74726f6c6c65723a206f7065726174696f6e2063616044820152701b9b9bdd0818994818d85b98d95b1b1959607a1b606482015260840161074e565b600082815260fb60205260408082208290555183917fbaa1eb22f2a492ba1a5fea61b8df4d27c6c8b5f3971e63bb58fa14ff72eedb7091a25050565b600082815260c96020526040902060010154610e418133610f6e565b6106c4838361132f565b600080516020612704833981519152610e65816000610cf1565b610e7357610e738133610f6e565b878614610e925760405162461bcd60e51b815260040161074e906121db565b878414610eb15760405162461bcd60e51b815260040161074e906121db565b6000610ec38a8a8a8a8a8a8a8a610d1c565b9050610ecf81856110c1565b60005b89811015610f5857610f4882828d8d85818110610ef157610ef161221e565b9050602002016020810190610f069190611d48565b8c8c86818110610f1857610f1861221e565b905060200201358b8b87818110610f3157610f3161221e565b9050602002810190610f439190612234565b61115c565b610f5181612290565b9050610ed2565b50610f6281611270565b50505050505050505050565b610f788282610cf1565b61076157610f90816001600160a01b031660146115c9565b610f9b8360206115c9565b604051602001610fac929190612416565b60408051601f198184030181529082905262461bcd60e51b825261074e916004016124b7565b610fdb826106c9565b156110405760405162461bcd60e51b815260206004820152602f60248201527f54696d656c6f636b436f6e74726f6c6c65723a206f7065726174696f6e20616c60448201526e1c9958591e481cd8da19591d5b1959608a1b606482015260840161074e565b60fc548110156110a15760405162461bcd60e51b815260206004820152602660248201527f54696d656c6f636b436f6e74726f6c6c65723a20696e73756666696369656e746044820152652064656c617960d01b606482015260840161074e565b6110ab81426124ca565b600092835260fb60205260409092209190915550565b6110ca82610678565b6110e65760405162461bcd60e51b815260040161074e906124e2565b8015806111015750600081815260fb60205260409020546001145b6107615760405162461bcd60e51b815260206004820152602660248201527f54696d656c6f636b436f6e74726f6c6c65723a206d697373696e6720646570656044820152656e64656e637960d01b606482015260840161074e565b6000846001600160a01b031684848460405161117992919061252c565b60006040518083038185875af1925050503d80600081146111b6576040519150601f19603f3d011682016040523d82523d6000602084013e6111bb565b606091505b50509050806112285760405162461bcd60e51b815260206004820152603360248201527f54696d656c6f636b436f6e74726f6c6c65723a20756e6465726c79696e6720746044820152721c985b9cd858dd1a5bdb881c995d995c9d1959606a1b606482015260840161074e565b85877fc2617efa69bab66782fa219543714338489c4e9e178271560a91b82c3f612b588787878760405161125f949392919061253c565b60405180910390a350505050505050565b61127981610678565b6112955760405162461bcd60e51b815260040161074e906124e2565b600090815260fb6020526040902060019055565b6112b38282610cf1565b61076157600082815260c9602090815260408083206001600160a01b03851684529091529020805460ff191660011790556112eb3390565b6001600160a01b0316816001600160a01b0316837f2f8788117e7eff1d82e926ec794901d17c78024a50270940304540a733656f0d60405160405180910390a45050565b6113398282610cf1565b1561076157600082815260c9602090815260408083206001600160a01b0385168085529252808320805460ff1916905551339285917ff6391f5c32d9c69d2a47ea670b442974b53935d1edc7fd64eb21e047a839171b9190a45050565b60008051602061266f8339815191526107618133610f6e565b7f4910fdfa16fed3260ed0e7147f7cc6da11a60208b5b9406d12a635614ffd91435460ff16156113e2576106c483611764565b826001600160a01b03166352d1902d6040518163ffffffff1660e01b815260040160206040518083038186803b15801561141b57600080fd5b505afa92505050801561144b575060408051601f3d908101601f191682019092526114489181019061256e565b60015b6114ae5760405162461bcd60e51b815260206004820152602e60248201527f45524331393637557067726164653a206e657720696d706c656d656e7461746960448201526d6f6e206973206e6f74205555505360901b606482015260840161074e565b60008051602061264f833981519152811461151d5760405162461bcd60e51b815260206004820152602960248201527f45524331393637557067726164653a20756e737570706f727465642070726f786044820152681a58589b195555525160ba1b606482015260840161074e565b506106c4838383611800565b600054610100900460ff166115505760405162461bcd60e51b815260040161074e90612587565b565b600054610100900460ff166115795760405162461bcd60e51b815260040161074e90612587565b6106c4838383611825565b610761828260405160240161159a9291906125d2565b60408051601f198184030181529190526020810180516001600160e01b031663319af33360e01b1790526119b3565b606060006115d88360026125fc565b6115e39060026124ca565b6001600160401b038111156115fa576115fa611d63565b6040519080825280601f01601f191660200182016040528015611624576020820181803683370190505b509050600360fc1b8160008151811061163f5761163f61221e565b60200101906001600160f81b031916908160001a905350600f60fb1b8160018151811061166e5761166e61221e565b60200101906001600160f81b031916908160001a90535060006116928460026125fc565b61169d9060016124ca565b90505b6001811115611715576f181899199a1a9b1b9c1cb0b131b232b360811b85600f16601081106116d1576116d161221e565b1a60f81b8282815181106116e7576116e761221e565b60200101906001600160f81b031916908160001a90535060049490941c9361170e8161261b565b90506116a0565b5083156106975760405162461bcd60e51b815260206004820181905260248201527f537472696e67733a20686578206c656e67746820696e73756666696369656e74604482015260640161074e565b6001600160a01b0381163b6117d15760405162461bcd60e51b815260206004820152602d60248201527f455243313936373a206e657720696d706c656d656e746174696f6e206973206e60448201526c1bdd08184818dbdb9d1c9858dd609a1b606482015260840161074e565b60008051602061264f83398151915280546001600160a01b0319166001600160a01b0392909216919091179055565b611809836119d4565b6000825111806118165750805b156106c457610b6b8383611a14565b600054610100900460ff1661184c5760405162461bcd60e51b815260040161074e90612587565b61186460008051602061266f83398151915280611b08565b61188a6000805160206126e483398151915260008051602061266f833981519152611b08565b6118b060008051602061270483398151915260008051602061266f833981519152611b08565b6118c860008051602061266f83398151915233611b53565b6118e060008051602061266f83398151915230611b53565b60005b825181101561192d5761191d6000805160206126e48339815191528483815181106119105761191061221e565b6020026020010151611b53565b61192681612290565b90506118e3565b5060005b815181101561196e5761195e6000805160206127048339815191528383815181106119105761191061221e565b61196781612290565b9050611931565b5060fc8390556040805160008152602081018590527f11c24f4ead16507c69ac467fbd5e4eed5fb5c699626d2cc6d66421df253886d5910160405180910390a1505050565b80516a636f6e736f6c652e6c6f67602083016000808483855afa5050505050565b6119dd81611764565b6040516001600160a01b038216907fbc7cd75a20ee27fd9adebab32041f755214dbc6bffa90cc0225b39da2e5c2d3b90600090a250565b60606001600160a01b0383163b611a7c5760405162461bcd60e51b815260206004820152602660248201527f416464726573733a2064656c65676174652063616c6c20746f206e6f6e2d636f6044820152651b9d1c9858dd60d21b606482015260840161074e565b600080846001600160a01b031684604051611a979190612632565b600060405180830381855af49150503d8060008114611ad2576040519150601f19603f3d011682016040523d82523d6000602084013e611ad7565b606091505b5091509150611aff828260405180606001604052806027815260200161268f60279139611b5d565b95945050505050565b600082815260c96020526040808220600101805490849055905190918391839186917fbd79b86ffe0ab8e8776151514217cd7cacd52c909f66475c3af44e129f0b00ff9190a4505050565b61076182826112a9565b60608315611b6c575081610697565b825115611b7c5782518084602001fd5b8160405162461bcd60e51b815260040161074e91906124b7565b80356001600160a01b0381168114611bad57600080fd5b919050565b60008083601f840112611bc457600080fd5b5081356001600160401b03811115611bdb57600080fd5b602083019150836020828501011115611bf357600080fd5b9250929050565b600080600080600080600060c0888a031215611c1557600080fd5b611c1e88611b96565b96506020880135955060408801356001600160401b03811115611c4057600080fd5b611c4c8a828b01611bb2565b989b979a50986060810135976080820135975060a09091013595509350505050565b600060208284031215611c8057600080fd5b81356001600160e01b03198116811461069757600080fd5b60008060008060008060a08789031215611cb157600080fd5b611cba87611b96565b95506020870135945060408701356001600160401b03811115611cdc57600080fd5b611ce889828a01611bb2565b979a9699509760608101359660809091013595509350505050565b600060208284031215611d1557600080fd5b5035919050565b60008060408385031215611d2f57600080fd5b82359150611d3f60208401611b96565b90509250929050565b600060208284031215611d5a57600080fd5b61069782611b96565b634e487b7160e01b600052604160045260246000fd5b604051601f8201601f191681016001600160401b0381118282101715611da157611da1611d63565b604052919050565b60008060408385031215611dbc57600080fd5b611dc583611b96565b91506020808401356001600160401b0380821115611de257600080fd5b818601915086601f830112611df657600080fd5b813581811115611e0857611e08611d63565b611e1a601f8201601f19168501611d79565b91508082528784828501011115611e3057600080fd5b80848401858401376000848284010152508093505050509250929050565b600082601f830112611e5f57600080fd5b813560206001600160401b03821115611e7a57611e7a611d63565b8160051b611e89828201611d79565b9283528481018201928281019087851115611ea357600080fd5b83870192505b84831015611ec957611eba83611b96565b82529183019190830190611ea9565b979650505050505050565b600080600060608486031215611ee957600080fd5b8335925060208401356001600160401b0380821115611f0757600080fd5b611f1387838801611e4e565b93506040860135915080821115611f2957600080fd5b50611f3686828701611e4e565b9150509250925092565b60008083601f840112611f5257600080fd5b5081356001600160401b03811115611f6957600080fd5b6020830191508360208260051b8501011115611bf357600080fd5b600080600080600080600080600060c08a8c031215611fa257600080fd5b89356001600160401b0380821115611fb957600080fd5b611fc58d838e01611f40565b909b50995060208c0135915080821115611fde57600080fd5b611fea8d838e01611f40565b909950975060408c013591508082111561200357600080fd5b506120108c828d01611f40565b9a9d999c50979a969997986060880135976080810135975060a0013595509350505050565b60008060008060008060008060a0898b03121561205157600080fd5b88356001600160401b038082111561206857600080fd5b6120748c838d01611f40565b909a50985060208b013591508082111561208d57600080fd5b6120998c838d01611f40565b909850965060408b01359150808211156120b257600080fd5b506120bf8b828c01611f40565b999c989b509699959896976060870135966080013595509350505050565b81835281816020850137506000828201602090810191909152601f909101601f19169091010190565b60018060a01b038716815285602082015260a06040820152600061212e60a0830186886120dd565b60608301949094525060800152949350505050565b6020808252602c908201527f46756e6374696f6e206d7573742062652063616c6c6564207468726f7567682060408201526b19195b1959d85d1958d85b1b60a21b606082015260800190565b6020808252602c908201527f46756e6374696f6e206d7573742062652063616c6c6564207468726f7567682060408201526b6163746976652070726f787960a01b606082015260800190565b60208082526023908201527f54696d656c6f636b436f6e74726f6c6c65723a206c656e677468206d69736d616040820152620e8c6d60eb1b606082015260800190565b634e487b7160e01b600052603260045260246000fd5b6000808335601e1984360301811261224b57600080fd5b8301803591506001600160401b0382111561226557600080fd5b602001915036819003821315611bf357600080fd5b634e487b7160e01b600052601160045260246000fd5b60006000198214156122a4576122a461227a565b5060010190565b60008383855260208086019550808560051b8301018460005b8781101561233257848303601f19018952813536889003601e190181126122ea57600080fd5b870180356001600160401b0381111561230257600080fd5b80360389131561231157600080fd5b61231e85828885016120dd565b9a86019a94505050908301906001016122c4565b5090979650505050505050565b60a0808252810188905260008960c08301825b8b811015612380576001600160a01b0361236b84611b96565b16825260209283019290910190600101612352565b5083810360208501528881526001600160fb1b038911156123a057600080fd5b8860051b9150818a6020830137818101915050602081016000815260208483030160408501526123d181888a6122ab565b6060850196909652505050608001529695505050505050565b60005b838110156124055781810151838201526020016123ed565b83811115610b6b5750506000910152565b7f416363657373436f6e74726f6c3a206163636f756e742000000000000000000081526000835161244e8160178501602088016123ea565b7001034b99036b4b9b9b4b733903937b6329607d1b601791840191820152835161247f8160288401602088016123ea565b01602801949350505050565b600081518084526124a38160208601602086016123ea565b601f01601f19169290920160200192915050565b602081526000610697602083018461248b565b600082198211156124dd576124dd61227a565b500190565b6020808252602a908201527f54696d656c6f636b436f6e74726f6c6c65723a206f7065726174696f6e206973604082015269206e6f7420726561647960b01b606082015260800190565b8183823760009101908152919050565b60018060a01b03851681528360208201526060604082015260006125646060830184866120dd565b9695505050505050565b60006020828403121561258057600080fd5b5051919050565b6020808252602b908201527f496e697469616c697a61626c653a20636f6e7472616374206973206e6f74206960408201526a6e697469616c697a696e6760a81b606082015260800190565b6040815260006125e5604083018561248b565b905060018060a01b03831660208301529392505050565b60008160001904831182151516156126165761261661227a565b500290565b60008161262a5761262a61227a565b506000190190565b600082516126448184602087016123ea565b919091019291505056fe360894a13ba1a3210667c828492db98dca3e2076cc3735a920a3ca505d382bbc5f58e3a2316349923ce3780f8d587db2d72378aed66a8261c916544fa6846ca5416464726573733a206c6f772d6c6576656c2064656c65676174652063616c6c206661696c656454696d654c6f636b20636f6e7472616374206465706c6f796564206279206d736753656e64657228293a2025733ab09aa5aeb3702cfd50b6b62bc4532604938f21248a27a1d5ca736082b6819cc1d8aa0f3194971a2a116679f7c2090f6939c8d4e01a2a8d7e41d55e5351469e63a2646970667358221220c07cc7a016e736d028dcc681f0b1f82930158be690d5a57bda0bd3e6dc0afba164736f6c63430008090033",
  "devdoc": {
    "kind": "dev",
    "methods": {
      "cancel(bytes32)": {
        "details": "Cancel an operation. Requirements: - the caller must have the 'proposer' role."
      },
      "execute(address,uint256,bytes,bytes32,bytes32)": {
        "details": "Execute an (ready) operation containing a single transaction. Emits a {CallExecuted} event. Requirements: - the caller must have the 'executor' role."
      },
      "executeBatch(address[],uint256[],bytes[],bytes32,bytes32)": {
        "details": "Execute an (ready) operation containing a batch of transactions. Emits one {CallExecuted} event per transaction in the batch. Requirements: - the caller must have the 'executor' role."
      },
      "getMinDelay()": {
        "details": "Returns the minimum delay for an operation to become valid. This value can be changed by executing an operation that calls `updateDelay`."
      },
      "getRoleAdmin(bytes32)": {
        "details": "Returns the admin role that controls `role`. See {grantRole} and {revokeRole}. To change a role's admin, use {_setRoleAdmin}."
      },
      "getTimestamp(bytes32)": {
        "details": "Returns the timestamp at with an operation becomes ready (0 for unset operations, 1 for done operations)."
      },
      "grantRole(bytes32,address)": {
        "details": "Grants `role` to `account`. If `account` had not been already granted `role`, emits a {RoleGranted} event. Requirements: - the caller must have ``role``'s admin role."
      },
      "hasRole(bytes32,address)": {
        "details": "Returns `true` if `account` has been granted `role`."
      },
      "hashOperation(address,uint256,bytes,bytes32,bytes32)": {
        "details": "Returns the identifier of an operation containing a single transaction."
      },
      "hashOperationBatch(address[],uint256[],bytes[],bytes32,bytes32)": {
        "details": "Returns the identifier of an operation containing a batch of transactions."
      },
      "isOperation(bytes32)": {
        "details": "Returns whether an id correspond to a registered operation. This includes both Pending, Ready and Done operations."
      },
      "isOperationDone(bytes32)": {
        "details": "Returns whether an operation is done or not."
      },
      "isOperationPending(bytes32)": {
        "details": "Returns whether an operation is pending or not."
      },
      "isOperationReady(bytes32)": {
        "details": "Returns whether an operation is ready or not."
      },
      "proxiableUUID()": {
        "details": "Implementation of the ERC1822 {proxiableUUID} function. This returns the storage slot used by the implementation. It is used to validate that the this implementation remains valid after an upgrade. IMPORTANT: A proxy pointing at a proxiable contract should not be considered proxiable itself, because this risks bricking a proxy that upgrades to it, by delegating to itself until out of gas. Thus it is critical that this function revert if invoked through a proxy. This is guaranteed by the `notDelegated` modifier."
      },
      "renounceRole(bytes32,address)": {
        "details": "Revokes `role` from the calling account. Roles are often managed via {grantRole} and {revokeRole}: this function's purpose is to provide a mechanism for accounts to lose their privileges if they are compromised (such as when a trusted device is misplaced). If the calling account had been revoked `role`, emits a {RoleRevoked} event. Requirements: - the caller must be `account`."
      },
      "revokeRole(bytes32,address)": {
        "details": "Revokes `role` from `account`. If `account` had been granted `role`, emits a {RoleRevoked} event. Requirements: - the caller must have ``role``'s admin role."
      },
      "schedule(address,uint256,bytes,bytes32,bytes32,uint256)": {
        "details": "Schedule an operation containing a single transaction. Emits a {CallScheduled} event. Requirements: - the caller must have the 'proposer' role."
      },
      "scheduleBatch(address[],uint256[],bytes[],bytes32,bytes32,uint256)": {
        "details": "Schedule an operation containing a batch of transactions. Emits one {CallScheduled} event per transaction in the batch. Requirements: - the caller must have the 'proposer' role."
      },
      "supportsInterface(bytes4)": {
        "details": "See {IERC165-supportsInterface}."
      },
      "updateDelay(uint256)": {
        "details": "Changes the minimum timelock duration for future operations. Emits a {MinDelayChange} event. Requirements: - the caller must be the timelock itself. This can only be achieved by scheduling and later executing an operation where the timelock is the target and the data is the ABI-encoded call to this function."
      },
      "upgradeTo(address)": {
        "details": "Upgrade the implementation of the proxy to `newImplementation`. Calls {_authorizeUpgrade}. Emits an {Upgraded} event."
      },
      "upgradeToAndCall(address,bytes)": {
        "details": "Upgrade the implementation of the proxy to `newImplementation`, and subsequently execute the function call encoded in `data`. Calls {_authorizeUpgrade}. Emits an {Upgraded} event."
      }
    },
    "version": 1
  },
  "userdoc": {
    "kind": "user",
    "methods": {
      "constructor": {
        "notice": "/  bytes32 public constant TIMELOCK_ADMIN_ROLE = keccak256(\"TIMELOCK_ADMIN_ROLE\"); bytes32 public constant PROPOSER_ROLE = keccak256(\"PROPOSER_ROLE\"); bytes32 public constant EXECUTOR_ROLE = keccak256(\"EXECUTOR_ROLE\"); bytes32 public constant CANCELLER_ROLE = keccak256(\"CANCELLER_ROLE\"); function __TimelockController_init( uint256 minDelay, address[] memory proposers, address[] memory executors _setRoleAdmin(TIMELOCK_ADMIN_ROLE, TIMELOCK_ADMIN_ROLE); _setRoleAdmin(PROPOSER_ROLE, TIMELOCK_ADMIN_ROLE); _setRoleAdmin(EXECUTOR_ROLE, TIMELOCK_ADMIN_ROLE); // deployer + self administration _setupRole(TIMELOCK_ADMIN_ROLE, _msgSender()); _setupRole(TIMELOCK_ADMIN_ROLE, address(this)); // register proposers for (uint256 i = 0; i < proposers.length; ++i) { _setupRole(PROPOSER_ROLE, proposers[i]); } // register executors for (uint256 i = 0; i < executors.length; ++i) { _setupRole(EXECUTOR_ROLE, executors[i]); } _minDelay = minDelay; emit MinDelayChange(0, minDelay); }"
      }
    },
    "version": 1
  },
  "storageLayout": {
    "storage": [
      {
        "astId": 4045,
        "contract": "contracts/governance_standard/TimeLock.sol:TimeLock",
        "label": "_initialized",
        "offset": 0,
        "slot": "0",
        "type": "t_bool"
      },
      {
        "astId": 4048,
        "contract": "contracts/governance_standard/TimeLock.sol:TimeLock",
        "label": "_initializing",
        "offset": 1,
        "slot": "0",
        "type": "t_bool"
      },
      {
        "astId": 4027,
        "contract": "contracts/governance_standard/TimeLock.sol:TimeLock",
        "label": "__gap",
        "offset": 0,
        "slot": "1",
        "type": "t_array(t_uint256)50_storage"
      },
      {
        "astId": 4247,
        "contract": "contracts/governance_standard/TimeLock.sol:TimeLock",
        "label": "__gap",
        "offset": 0,
        "slot": "51",
        "type": "t_array(t_uint256)50_storage"
      },
      {
        "astId": 7188,
        "contract": "contracts/governance_standard/TimeLock.sol:TimeLock",
        "label": "__gap",
        "offset": 0,
        "slot": "101",
        "type": "t_array(t_uint256)50_storage"
      },
      {
        "astId": 8340,
        "contract": "contracts/governance_standard/TimeLock.sol:TimeLock",
        "label": "__gap",
        "offset": 0,
        "slot": "151",
        "type": "t_array(t_uint256)50_storage"
      },
      {
        "astId": 39,
        "contract": "contracts/governance_standard/TimeLock.sol:TimeLock",
        "label": "_roles",
        "offset": 0,
        "slot": "201",
        "type": "t_mapping(t_bytes32,t_struct(RoleData)34_storage)"
      },
      {
        "astId": 327,
        "contract": "contracts/governance_standard/TimeLock.sol:TimeLock",
        "label": "__gap",
        "offset": 0,
        "slot": "202",
        "type": "t_array(t_uint256)49_storage"
      },
      {
        "astId": 1693,
        "contract": "contracts/governance_standard/TimeLock.sol:TimeLock",
        "label": "_timestamps",
        "offset": 0,
        "slot": "251",
        "type": "t_mapping(t_bytes32,t_uint256)"
      },
      {
        "astId": 1695,
        "contract": "contracts/governance_standard/TimeLock.sol:TimeLock",
        "label": "_minDelay",
        "offset": 0,
        "slot": "252",
        "type": "t_uint256"
      },
      {
        "astId": 2467,
        "contract": "contracts/governance_standard/TimeLock.sol:TimeLock",
        "label": "__gap",
        "offset": 0,
        "slot": "253",
        "type": "t_array(t_uint256)48_storage"
      }
    ],
    "types": {
      "t_address": {
        "encoding": "inplace",
        "label": "address",
        "numberOfBytes": "20"
      },
      "t_array(t_uint256)48_storage": {
        "base": "t_uint256",
        "encoding": "inplace",
        "label": "uint256[48]",
        "numberOfBytes": "1536"
      },
      "t_array(t_uint256)49_storage": {
        "base": "t_uint256",
        "encoding": "inplace",
        "label": "uint256[49]",
        "numberOfBytes": "1568"
      },
      "t_array(t_uint256)50_storage": {
        "base": "t_uint256",
        "encoding": "inplace",
        "label": "uint256[50]",
        "numberOfBytes": "1600"
      },
      "t_bool": {
        "encoding": "inplace",
        "label": "bool",
        "numberOfBytes": "1"
      },
      "t_bytes32": {
        "encoding": "inplace",
        "label": "bytes32",
        "numberOfBytes": "32"
      },
      "t_mapping(t_address,t_bool)": {
        "encoding": "mapping",
        "key": "t_address",
        "label": "mapping(address => bool)",
        "numberOfBytes": "32",
        "value": "t_bool"
      },
      "t_mapping(t_bytes32,t_struct(RoleData)34_storage)": {
        "encoding": "mapping",
        "key": "t_bytes32",
        "label": "mapping(bytes32 => struct AccessControlUpgradeable.RoleData)",
        "numberOfBytes": "32",
        "value": "t_struct(RoleData)34_storage"
      },
      "t_mapping(t_bytes32,t_uint256)": {
        "encoding": "mapping",
        "key": "t_bytes32",
        "label": "mapping(bytes32 => uint256)",
        "numberOfBytes": "32",
        "value": "t_uint256"
      },
      "t_struct(RoleData)34_storage": {
        "encoding": "inplace",
        "label": "struct AccessControlUpgradeable.RoleData",
        "members": [
          {
            "astId": 31,
            "contract": "contracts/governance_standard/TimeLock.sol:TimeLock",
            "label": "members",
            "offset": 0,
            "slot": "0",
            "type": "t_mapping(t_address,t_bool)"
          },
          {
            "astId": 33,
            "contract": "contracts/governance_standard/TimeLock.sol:TimeLock",
            "label": "adminRole",
            "offset": 0,
            "slot": "1",
            "type": "t_bytes32"
          }
        ],
        "numberOfBytes": "64"
      },
      "t_uint256": {
        "encoding": "inplace",
        "label": "uint256",
        "numberOfBytes": "32"
      }
    }
  }
}